{
  "contractName": "LavaToken",
  "abi": [
    {
      "constant": true,
      "inputs": [],
      "name": "name",
      "outputs": [
        {
          "name": "",
          "type": "string"
        }
      ],
      "payable": false,
      "stateMutability": "view",
      "type": "function"
    },
    {
      "constant": true,
      "inputs": [
        {
          "name": "",
          "type": "address"
        }
      ],
      "name": "balances",
      "outputs": [
        {
          "name": "",
          "type": "uint256"
        }
      ],
      "payable": false,
      "stateMutability": "view",
      "type": "function"
    },
    {
      "constant": true,
      "inputs": [],
      "name": "masterToken",
      "outputs": [
        {
          "name": "",
          "type": "address"
        }
      ],
      "payable": false,
      "stateMutability": "view",
      "type": "function"
    },
    {
      "constant": true,
      "inputs": [],
      "name": "decimals",
      "outputs": [
        {
          "name": "",
          "type": "uint8"
        }
      ],
      "payable": false,
      "stateMutability": "view",
      "type": "function"
    },
    {
      "constant": true,
      "inputs": [
        {
          "name": "",
          "type": "bytes32"
        }
      ],
      "name": "burnedSignatures",
      "outputs": [
        {
          "name": "",
          "type": "uint256"
        }
      ],
      "payable": false,
      "stateMutability": "view",
      "type": "function"
    },
    {
      "constant": true,
      "inputs": [],
      "name": "symbol",
      "outputs": [
        {
          "name": "",
          "type": "string"
        }
      ],
      "payable": false,
      "stateMutability": "view",
      "type": "function"
    },
    {
      "constant": true,
      "inputs": [
        {
          "name": "",
          "type": "address"
        },
        {
          "name": "",
          "type": "address"
        }
      ],
      "name": "allowance",
      "outputs": [
        {
          "name": "",
          "type": "uint256"
        }
      ],
      "payable": false,
      "stateMutability": "view",
      "type": "function"
    },
    {
      "inputs": [],
      "payable": false,
      "stateMutability": "nonpayable",
      "type": "constructor"
    },
    {
      "payable": true,
      "stateMutability": "payable",
      "type": "fallback"
    },
    {
      "anonymous": false,
      "inputs": [
        {
          "indexed": true,
          "name": "src",
          "type": "address"
        },
        {
          "indexed": true,
          "name": "ext",
          "type": "address"
        },
        {
          "indexed": false,
          "name": "amt",
          "type": "uint256"
        }
      ],
      "name": "Approval",
      "type": "event"
    },
    {
      "anonymous": false,
      "inputs": [
        {
          "indexed": true,
          "name": "src",
          "type": "address"
        },
        {
          "indexed": true,
          "name": "dst",
          "type": "address"
        },
        {
          "indexed": false,
          "name": "amt",
          "type": "uint256"
        }
      ],
      "name": "Transfer",
      "type": "event"
    },
    {
      "anonymous": false,
      "inputs": [
        {
          "indexed": true,
          "name": "dst",
          "type": "address"
        },
        {
          "indexed": false,
          "name": "amt",
          "type": "uint256"
        }
      ],
      "name": "Deposit",
      "type": "event"
    },
    {
      "anonymous": false,
      "inputs": [
        {
          "indexed": true,
          "name": "src",
          "type": "address"
        },
        {
          "indexed": false,
          "name": "amt",
          "type": "uint256"
        }
      ],
      "name": "Withdrawal",
      "type": "event"
    },
    {
      "constant": true,
      "inputs": [],
      "name": "getLavaPacketTypehash",
      "outputs": [
        {
          "name": "",
          "type": "bytes32"
        }
      ],
      "payable": false,
      "stateMutability": "pure",
      "type": "function"
    },
    {
      "constant": true,
      "inputs": [
        {
          "name": "methodName",
          "type": "string"
        },
        {
          "name": "relayAuthority",
          "type": "address"
        },
        {
          "name": "from",
          "type": "address"
        },
        {
          "name": "to",
          "type": "address"
        },
        {
          "name": "wallet",
          "type": "address"
        },
        {
          "name": "tokens",
          "type": "uint256"
        },
        {
          "name": "relayerRewardTokens",
          "type": "uint256"
        },
        {
          "name": "expires",
          "type": "uint256"
        },
        {
          "name": "nonce",
          "type": "uint256"
        }
      ],
      "name": "getLavaPacketHash",
      "outputs": [
        {
          "name": "",
          "type": "bytes32"
        }
      ],
      "payable": false,
      "stateMutability": "pure",
      "type": "function"
    },
    {
      "constant": false,
      "inputs": [
        {
          "name": "from",
          "type": "address"
        },
        {
          "name": "amount",
          "type": "uint256"
        }
      ],
      "name": "mutateTokens",
      "outputs": [
        {
          "name": "",
          "type": "bool"
        }
      ],
      "payable": false,
      "stateMutability": "nonpayable",
      "type": "function"
    },
    {
      "constant": false,
      "inputs": [
        {
          "name": "from",
          "type": "address"
        },
        {
          "name": "amount",
          "type": "uint256"
        }
      ],
      "name": "unmutateTokens",
      "outputs": [
        {
          "name": "",
          "type": "bool"
        }
      ],
      "payable": false,
      "stateMutability": "nonpayable",
      "type": "function"
    },
    {
      "constant": true,
      "inputs": [],
      "name": "totalSupply",
      "outputs": [
        {
          "name": "",
          "type": "uint256"
        }
      ],
      "payable": false,
      "stateMutability": "view",
      "type": "function"
    },
    {
      "constant": false,
      "inputs": [
        {
          "name": "spender",
          "type": "address"
        },
        {
          "name": "tokens",
          "type": "uint256"
        }
      ],
      "name": "approve",
      "outputs": [
        {
          "name": "success",
          "type": "bool"
        }
      ],
      "payable": false,
      "stateMutability": "nonpayable",
      "type": "function"
    },
    {
      "constant": false,
      "inputs": [
        {
          "name": "to",
          "type": "address"
        },
        {
          "name": "tokens",
          "type": "uint256"
        }
      ],
      "name": "transferTokens",
      "outputs": [
        {
          "name": "success",
          "type": "bool"
        }
      ],
      "payable": false,
      "stateMutability": "nonpayable",
      "type": "function"
    },
    {
      "constant": false,
      "inputs": [
        {
          "name": "from",
          "type": "address"
        },
        {
          "name": "to",
          "type": "address"
        },
        {
          "name": "tokens",
          "type": "uint256"
        }
      ],
      "name": "transferTokensFrom",
      "outputs": [
        {
          "name": "success",
          "type": "bool"
        }
      ],
      "payable": false,
      "stateMutability": "nonpayable",
      "type": "function"
    },
    {
      "constant": true,
      "inputs": [
        {
          "name": "methodName",
          "type": "string"
        },
        {
          "name": "relayAuthority",
          "type": "address"
        },
        {
          "name": "from",
          "type": "address"
        },
        {
          "name": "to",
          "type": "address"
        },
        {
          "name": "wallet",
          "type": "address"
        },
        {
          "name": "tokens",
          "type": "uint256"
        },
        {
          "name": "relayerRewardTokens",
          "type": "uint256"
        },
        {
          "name": "expires",
          "type": "uint256"
        },
        {
          "name": "nonce",
          "type": "uint256"
        }
      ],
      "name": "getLavaTypedDataHash",
      "outputs": [
        {
          "name": "",
          "type": "bytes32"
        }
      ],
      "payable": false,
      "stateMutability": "pure",
      "type": "function"
    },
    {
      "constant": false,
      "inputs": [
        {
          "name": "methodName",
          "type": "string"
        },
        {
          "name": "relayAuthority",
          "type": "address"
        },
        {
          "name": "from",
          "type": "address"
        },
        {
          "name": "to",
          "type": "address"
        },
        {
          "name": "wallet",
          "type": "address"
        },
        {
          "name": "tokens",
          "type": "uint256"
        },
        {
          "name": "relayerRewardTokens",
          "type": "uint256"
        },
        {
          "name": "expires",
          "type": "uint256"
        },
        {
          "name": "nonce",
          "type": "uint256"
        },
        {
          "name": "signature",
          "type": "bytes"
        }
      ],
      "name": "approveTokensWithSignature",
      "outputs": [
        {
          "name": "success",
          "type": "bool"
        }
      ],
      "payable": false,
      "stateMutability": "nonpayable",
      "type": "function"
    },
    {
      "constant": false,
      "inputs": [
        {
          "name": "methodName",
          "type": "string"
        },
        {
          "name": "relayAuthority",
          "type": "address"
        },
        {
          "name": "from",
          "type": "address"
        },
        {
          "name": "to",
          "type": "address"
        },
        {
          "name": "wallet",
          "type": "address"
        },
        {
          "name": "tokens",
          "type": "uint256"
        },
        {
          "name": "relayerRewardTokens",
          "type": "uint256"
        },
        {
          "name": "expires",
          "type": "uint256"
        },
        {
          "name": "nonce",
          "type": "uint256"
        },
        {
          "name": "signature",
          "type": "bytes"
        }
      ],
      "name": "transferTokensWithSignature",
      "outputs": [
        {
          "name": "success",
          "type": "bool"
        }
      ],
      "payable": false,
      "stateMutability": "nonpayable",
      "type": "function"
    },
    {
      "constant": false,
      "inputs": [
        {
          "name": "methodName",
          "type": "string"
        },
        {
          "name": "relayAuthority",
          "type": "address"
        },
        {
          "name": "from",
          "type": "address"
        },
        {
          "name": "to",
          "type": "address"
        },
        {
          "name": "wallet",
          "type": "address"
        },
        {
          "name": "tokens",
          "type": "uint256"
        },
        {
          "name": "relayerRewardTokens",
          "type": "uint256"
        },
        {
          "name": "expires",
          "type": "uint256"
        },
        {
          "name": "nonce",
          "type": "uint256"
        },
        {
          "name": "signature",
          "type": "bytes"
        }
      ],
      "name": "burnSignature",
      "outputs": [
        {
          "name": "success",
          "type": "bool"
        }
      ],
      "payable": false,
      "stateMutability": "nonpayable",
      "type": "function"
    },
    {
      "constant": true,
      "inputs": [
        {
          "name": "digest",
          "type": "bytes32"
        }
      ],
      "name": "signatureBurnStatus",
      "outputs": [
        {
          "name": "",
          "type": "uint256"
        }
      ],
      "payable": false,
      "stateMutability": "view",
      "type": "function"
    },
    {
      "constant": false,
      "inputs": [
        {
          "name": "from",
          "type": "address"
        },
        {
          "name": "tokens",
          "type": "uint256"
        },
        {
          "name": "data",
          "type": "bytes"
        }
      ],
      "name": "receiveApproval",
      "outputs": [
        {
          "name": "success",
          "type": "bool"
        }
      ],
      "payable": false,
      "stateMutability": "nonpayable",
      "type": "function"
    },
    {
      "constant": false,
      "inputs": [
        {
          "name": "methodName",
          "type": "string"
        },
        {
          "name": "relayAuthority",
          "type": "address"
        },
        {
          "name": "from",
          "type": "address"
        },
        {
          "name": "to",
          "type": "address"
        },
        {
          "name": "wallet",
          "type": "address"
        },
        {
          "name": "tokens",
          "type": "uint256"
        },
        {
          "name": "relayerRewardTokens",
          "type": "uint256"
        },
        {
          "name": "expires",
          "type": "uint256"
        },
        {
          "name": "nonce",
          "type": "uint256"
        },
        {
          "name": "signature",
          "type": "bytes"
        }
      ],
      "name": "approveAndCall",
      "outputs": [
        {
          "name": "success",
          "type": "bool"
        }
      ],
      "payable": false,
      "stateMutability": "nonpayable",
      "type": "function"
    }
  ],
  "bytecode": "0x60806040526040805190810160405280600481526020017f4c617661000000000000000000000000000000000000000000000000000000008152506000908051906020019062000051929190620000d0565b506040805190810160405280600481526020017f4c41564100000000000000000000000000000000000000000000000000000000815250600190805190602001906200009f929190620000d0565b506008600260006101000a81548160ff021916908360ff160217905550348015620000c957600080fd5b506200017f565b828054600181600116156101000203166002900490600052602060002090601f016020900481019282601f106200011357805160ff191683800117855562000144565b8280016001018555821562000144579182015b828111156200014357825182559160200191906001019062000126565b5b50905062000153919062000157565b5090565b6200017c91905b80821115620001785760008160009055506001016200015e565b5090565b90565b612a8d806200018f6000396000f3fe608060405260043610610128576000357c0100000000000000000000000000000000000000000000000000000000900463ffffffff16806306fdde031461012d57806309417110146101bd578063095ea7b31461020c57806318160ddd1461027f57806327e235e3146102aa5780632bb5e31e1461030f578063313ce5671461036657806341c6f83614610397578063489432fd1461040a578063529120421461062a578063636f6e08146106bd5780636bd4e04a1461070c5780637b16bde31461077f578063927ced021461099f57806395d89b4114610b24578063a2d5785314610bb4578063ad0bfac114610cbe578063bec3fa1714610e43578063c375ba8a14610eb6578063dd62ed3e14610ee1578063dd975f9614610f66578063f0af68da14611186575b600080fd5b34801561013957600080fd5b506101426113a6565b6040518080602001828103825283818151815260200191508051906020019080838360005b83811015610182578082015181840152602081019050610167565b50505050905090810190601f1680156101af5780820380516001836020036101000a031916815260200191505b509250505060405180910390f35b3480156101c957600080fd5b506101f6600480360360208110156101e057600080fd5b8101908080359060200190929190505050611444565b6040518082815260200191505060405180910390f35b34801561021857600080fd5b506102656004803603604081101561022f57600080fd5b81019080803573ffffffffffffffffffffffffffffffffffffffff16906020019092919080359060200190929190505050611461565b604051808215151515815260200191505060405180910390f35b34801561028b57600080fd5b50610294611553565b6040518082815260200191505060405180910390f35b3480156102b657600080fd5b506102f9600480360360208110156102cd57600080fd5b81019080803573ffffffffffffffffffffffffffffffffffffffff16906020019092919050505061155d565b6040518082815260200191505060405180910390f35b34801561031b57600080fd5b50610324611575565b604051808273ffffffffffffffffffffffffffffffffffffffff1673ffffffffffffffffffffffffffffffffffffffff16815260200191505060405180910390f35b34801561037257600080fd5b5061037b61158d565b604051808260ff1660ff16815260200191505060405180910390f35b3480156103a357600080fd5b506103f0600480360360408110156103ba57600080fd5b81019080803573ffffffffffffffffffffffffffffffffffffffff169060200190929190803590602001909291905050506115a0565b604051808215151515815260200191505060405180910390f35b34801561041657600080fd5b50610610600480360361014081101561042e57600080fd5b810190808035906020019064010000000081111561044b57600080fd5b82018360208201111561045d57600080fd5b8035906020019184600183028401116401000000008311171561047f57600080fd5b91908080601f016020809104026020016040519081016040528093929190818152602001838380828437600081840152601f19601f820116905080830192505050505050509192919290803573ffffffffffffffffffffffffffffffffffffffff169060200190929190803573ffffffffffffffffffffffffffffffffffffffff169060200190929190803573ffffffffffffffffffffffffffffffffffffffff169060200190929190803573ffffffffffffffffffffffffffffffffffffffff169060200190929190803590602001909291908035906020019092919080359060200190929190803590602001909291908035906020019064010000000081111561058a57600080fd5b82018360208201111561059c57600080fd5b803590602001918460018302840111640100000000831117156105be57600080fd5b91908080601f016020809104026020016040519081016040528093929190818152602001838380828437600081840152601f19601f82011690508083019250505050505050919291929050505061179b565b604051808215151515815260200191505060405180910390f35b34801561063657600080fd5b506106a36004803603606081101561064d57600080fd5b81019080803573ffffffffffffffffffffffffffffffffffffffff169060200190929190803573ffffffffffffffffffffffffffffffffffffffff16906020019092919080359060200190929190505050611888565b604051808215151515815260200191505060405180910390f35b3480156106c957600080fd5b506106f6600480360360208110156106e057600080fd5b8101908080359060200190929190505050611b33565b6040518082815260200191505060405180910390f35b34801561071857600080fd5b506107656004803603604081101561072f57600080fd5b81019080803573ffffffffffffffffffffffffffffffffffffffff16906020019092919080359060200190929190505050611b4b565b604051808215151515815260200191505060405180910390f35b34801561078b57600080fd5b5061098560048036036101408110156107a357600080fd5b81019080803590602001906401000000008111156107c057600080fd5b8201836020820111156107d257600080fd5b803590602001918460018302840111640100000000831117156107f457600080fd5b91908080601f016020809104026020016040519081016040528093929190818152602001838380828437600081840152601f19601f820116905080830192505050505050509192919290803573ffffffffffffffffffffffffffffffffffffffff169060200190929190803573ffffffffffffffffffffffffffffffffffffffff169060200190929190803573ffffffffffffffffffffffffffffffffffffffff169060200190929190803573ffffffffffffffffffffffffffffffffffffffff16906020019092919080359060200190929190803590602001909291908035906020019092919080359060200190929190803590602001906401000000008111156108ff57600080fd5b82018360208201111561091157600080fd5b8035906020019184600183028401116401000000008311171561093357600080fd5b91908080601f016020809104026020016040519081016040528093929190818152602001838380828437600081840152601f19601f820116905080830192505050505050509192919290505050611d46565b604051808215151515815260200191505060405180910390f35b3480156109ab57600080fd5b50610b0e60048036036101208110156109c357600080fd5b81019080803590602001906401000000008111156109e057600080fd5b8201836020820111156109f257600080fd5b80359060200191846001830284011164010000000083111715610a1457600080fd5b91908080601f016020809104026020016040519081016040528093929190818152602001838380828437600081840152601f19601f820116905080830192505050505050509192919290803573ffffffffffffffffffffffffffffffffffffffff169060200190929190803573ffffffffffffffffffffffffffffffffffffffff169060200190929190803573ffffffffffffffffffffffffffffffffffffffff169060200190929190803573ffffffffffffffffffffffffffffffffffffffff16906020019092919080359060200190929190803590602001909291908035906020019092919080359060200190929190505050611dd8565b6040518082815260200191505060405180910390f35b348015610b3057600080fd5b50610b39611f27565b6040518080602001828103825283818151815260200191508051906020019080838360005b83811015610b79578082015181840152602081019050610b5e565b50505050905090810190601f168015610ba65780820380516001836020036101000a031916815260200191505b509250505060405180910390f35b348015610bc057600080fd5b50610ca460048036036060811015610bd757600080fd5b81019080803573ffffffffffffffffffffffffffffffffffffffff1690602001909291908035906020019092919080359060200190640100000000811115610c1e57600080fd5b820183602082011115610c3057600080fd5b80359060200191846001830284011164010000000083111715610c5257600080fd5b91908080601f016020809104026020016040519081016040528093929190818152602001838380828437600081840152601f19601f820116905080830192505050505050509192919290505050611fc5565b604051808215151515815260200191505060405180910390f35b348015610cca57600080fd5b50610e2d6004803603610120811015610ce257600080fd5b8101908080359060200190640100000000811115610cff57600080fd5b820183602082011115610d1157600080fd5b80359060200191846001830284011164010000000083111715610d3357600080fd5b91908080601f016020809104026020016040519081016040528093929190818152602001838380828437600081840152601f19601f820116905080830192505050505050509192919290803573ffffffffffffffffffffffffffffffffffffffff169060200190929190803573ffffffffffffffffffffffffffffffffffffffff169060200190929190803573ffffffffffffffffffffffffffffffffffffffff169060200190929190803573ffffffffffffffffffffffffffffffffffffffff16906020019092919080359060200190929190803590602001909291908035906020019092919080359060200190929190505050611fda565b6040518082815260200191505060405180910390f35b348015610e4f57600080fd5b50610e9c60048036036040811015610e6657600080fd5b81019080803573ffffffffffffffffffffffffffffffffffffffff1690602001909291908035906020019092919050505061204f565b604051808215151515815260200191505060405180910390f35b348015610ec257600080fd5b50610ecb612064565b6040518082815260200191505060405180910390f35b348015610eed57600080fd5b50610f5060048036036040811015610f0457600080fd5b81019080803573ffffffffffffffffffffffffffffffffffffffff169060200190929190803573ffffffffffffffffffffffffffffffffffffffff169060200190929190505050612084565b6040518082815260200191505060405180910390f35b348015610f7257600080fd5b5061116c6004803603610140811015610f8a57600080fd5b8101908080359060200190640100000000811115610fa757600080fd5b820183602082011115610fb957600080fd5b80359060200191846001830284011164010000000083111715610fdb57600080fd5b91908080601f016020809104026020016040519081016040528093929190818152602001838380828437600081840152601f19601f820116905080830192505050505050509192919290803573ffffffffffffffffffffffffffffffffffffffff169060200190929190803573ffffffffffffffffffffffffffffffffffffffff169060200190929190803573ffffffffffffffffffffffffffffffffffffffff169060200190929190803573ffffffffffffffffffffffffffffffffffffffff16906020019092919080359060200190929190803590602001909291908035906020019092919080359060200190929190803590602001906401000000008111156110e657600080fd5b8201836020820111156110f857600080fd5b8035906020019184600183028401116401000000008311171561111a57600080fd5b91908080601f016020809104026020016040519081016040528093929190818152602001838380828437600081840152601f19601f8201169050808301925050505050505091929192905050506120a9565b604051808215151515815260200191505060405180910390f35b34801561119257600080fd5b5061138c60048036036101408110156111aa57600080fd5b81019080803590602001906401000000008111156111c757600080fd5b8201836020820111156111d957600080fd5b803590602001918460018302840111640100000000831117156111fb57600080fd5b91908080601f016020809104026020016040519081016040528093929190818152602001838380828437600081840152601f19601f820116905080830192505050505050509192919290803573ffffffffffffffffffffffffffffffffffffffff169060200190929190803573ffffffffffffffffffffffffffffffffffffffff169060200190929190803573ffffffffffffffffffffffffffffffffffffffff169060200190929190803573ffffffffffffffffffffffffffffffffffffffff169060200190929190803590602001909291908035906020019092919080359060200190929190803590602001909291908035906020019064010000000081111561130657600080fd5b82018360208201111561131857600080fd5b8035906020019184600183028401116401000000008311171561133a57600080fd5b91908080601f016020809104026020016040519081016040528093929190818152602001838380828437600081840152601f19601f820116905080830192505050505050509192919290505050612151565b604051808215151515815260200191505060405180910390f35b60008054600181600116156101000203166002900480601f01602080910402602001604051908101604052809291908181526020018280546001816001161561010002031660029004801561143c5780601f106114115761010080835404028352916020019161143c565b820191906000526020600020905b81548152906001019060200180831161141f57829003601f168201915b505050505081565b600060066000838152602001908152602001600020549050919050565b600081600560003373ffffffffffffffffffffffffffffffffffffffff1673ffffffffffffffffffffffffffffffffffffffff16815260200190815260200160002060008573ffffffffffffffffffffffffffffffffffffffff1673ffffffffffffffffffffffffffffffffffffffff168152602001908152602001600020819055508273ffffffffffffffffffffffffffffffffffffffff163373ffffffffffffffffffffffffffffffffffffffff167f8c5be1e5ebec7d5bd14f71427d1e84f3dd0314c0f7b2291e5b200ac8c7c3b925846040518082815260200191505060405180910390a36001905092915050565b6000600354905090565b60046020528060005260406000206000915090505481565b739d2cc383e677292ed87f63586086cff62a00901081565b600260009054906101000a900460ff1681565b600080821115156115b057600080fd5b61160282600460008673ffffffffffffffffffffffffffffffffffffffff1673ffffffffffffffffffffffffffffffffffffffff1681526020019081526020016000205461235490919063ffffffff16565b600460008573ffffffffffffffffffffffffffffffffffffffff1673ffffffffffffffffffffffffffffffffffffffff1681526020019081526020016000208190555061165a8260035461235490919063ffffffff16565b600381905550739d2cc383e677292ed87f63586086cff62a00901073ffffffffffffffffffffffffffffffffffffffff166323b872dd3085856040518463ffffffff167c0100000000000000000000000000000000000000000000000000000000028152600401808473ffffffffffffffffffffffffffffffffffffffff1673ffffffffffffffffffffffffffffffffffffffff1681526020018373ffffffffffffffffffffffffffffffffffffffff1673ffffffffffffffffffffffffffffffffffffffff1681526020018281526020019350505050602060405180830381600087803b15801561174b57600080fd5b505af115801561175f573d6000803e3d6000fd5b505050506040513d602081101561177557600080fd5b8101908080519060200190929190505050151561179157600080fd5b6001905092915050565b6000806117af8c8c8c8c8c8c8c8c8c611fda565b905060006117bd828561236d565b90508a73ffffffffffffffffffffffffffffffffffffffff168173ffffffffffffffffffffffffffffffffffffffff161415156117f957600080fd5b3373ffffffffffffffffffffffffffffffffffffffff168b73ffffffffffffffffffffffffffffffffffffffff1614151561183357600080fd5b6000600660008481526020019081526020016000205490506002600660008581526020019081526020016000208190555060008114151561187357600080fd5b600193505050509a9950505050505050505050565b60006118dc82600460008773ffffffffffffffffffffffffffffffffffffffff1673ffffffffffffffffffffffffffffffffffffffff1681526020019081526020016000205461235490919063ffffffff16565b600460008673ffffffffffffffffffffffffffffffffffffffff1673ffffffffffffffffffffffffffffffffffffffff168152602001908152602001600020819055506119ae82600560008773ffffffffffffffffffffffffffffffffffffffff1673ffffffffffffffffffffffffffffffffffffffff16815260200190815260200160002060008673ffffffffffffffffffffffffffffffffffffffff1673ffffffffffffffffffffffffffffffffffffffff1681526020019081526020016000205461235490919063ffffffff16565b600560008673ffffffffffffffffffffffffffffffffffffffff1673ffffffffffffffffffffffffffffffffffffffff16815260200190815260200160002060008573ffffffffffffffffffffffffffffffffffffffff1673ffffffffffffffffffffffffffffffffffffffff16815260200190815260200160002081905550611a8082600460008673ffffffffffffffffffffffffffffffffffffffff1673ffffffffffffffffffffffffffffffffffffffff1681526020019081526020016000205461245190919063ffffffff16565b600460008573ffffffffffffffffffffffffffffffffffffffff1673ffffffffffffffffffffffffffffffffffffffff168152602001908152602001600020819055508273ffffffffffffffffffffffffffffffffffffffff168473ffffffffffffffffffffffffffffffffffffffff167fddf252ad1be2c89b69c2b068fc378daa952ba7f163c4a11628f55a4df523b3ef846040518082815260200191505060405180910390a3600190509392505050565b60066020528060005260406000206000915090505481565b60008082111515611b5b57600080fd5b739d2cc383e677292ed87f63586086cff62a00901073ffffffffffffffffffffffffffffffffffffffff166323b872dd8430856040518463ffffffff167c0100000000000000000000000000000000000000000000000000000000028152600401808473ffffffffffffffffffffffffffffffffffffffff1673ffffffffffffffffffffffffffffffffffffffff1681526020018373ffffffffffffffffffffffffffffffffffffffff1673ffffffffffffffffffffffffffffffffffffffff1681526020018281526020019350505050602060405180830381600087803b158015611c4657600080fd5b505af1158015611c5a573d6000803e3d6000fd5b505050506040513d6020811015611c7057600080fd5b81019080805190602001909291905050501515611c8c57600080fd5b611cde82600460008673ffffffffffffffffffffffffffffffffffffffff1673ffffffffffffffffffffffffffffffffffffffff1681526020019081526020016000205461245190919063ffffffff16565b600460008573ffffffffffffffffffffffffffffffffffffffff1673ffffffffffffffffffffffffffffffffffffffff16815260200190815260200160002081905550611d368260035461245190919063ffffffff16565b6003819055506001905092915050565b6000611d876040805190810160405280600781526020017f617070726f7665000000000000000000000000000000000000000000000000008152508c61246f565b1515611d9257600080fd5b6000611da58c8c8c8c8c8c8c8c8c611fda565b9050611dba8c8c8c8c8c8c8c8c8c8a8d6125b4565b1515611dc557600080fd5b60019150509a9950505050505050505050565b600060405180806129be60a4913960a401905060405180910390208a805190602001208a8a8a8a8a8a8a8a604051602001808b81526020018a81526020018973ffffffffffffffffffffffffffffffffffffffff1673ffffffffffffffffffffffffffffffffffffffff1681526020018873ffffffffffffffffffffffffffffffffffffffff1673ffffffffffffffffffffffffffffffffffffffff1681526020018773ffffffffffffffffffffffffffffffffffffffff1673ffffffffffffffffffffffffffffffffffffffff1681526020018673ffffffffffffffffffffffffffffffffffffffff1673ffffffffffffffffffffffffffffffffffffffff1681526020018581526020018481526020018381526020018281526020019a50505050505050505050506040516020818303038152906040528051906020012090509998505050505050505050565b60018054600181600116156101000203166002900480601f016020809104026020016040519081016040528092919081815260200182805460018160011615610100020316600290048015611fbd5780601f10611f9257610100808354040283529160200191611fbd565b820191906000526020600020905b815481529060010190602001808311611fa057829003601f168201915b505050505081565b6000611fd18484611b4b565b90509392505050565b600080611fee8b8b8b8b8b8b8b8b8b611dd8565b60405160200180807f1901000000000000000000000000000000000000000000000000000000000000815250600201828152602001915050604051602081830303815290604052805190602001209050809150509998505050505050505050565b600061205c338484611888565b905092915050565b600060405180806129be60a4913960a40190506040518091039020905090565b6005602052816000526040600020602052806000526040600020600091509150505481565b60006120ea6040805190810160405280600881526020017f7472616e736665720000000000000000000000000000000000000000000000008152508c61246f565b15156120f557600080fd5b60006121088c8c8c8c8c8c8c8c8c611fda565b905061211d8c8c8c8c8c8c8c8c8c8a8d6125b4565b151561212857600080fd5b6121338a8a89611888565b151561213e57600080fd5b60019150509a9950505050505050505050565b60006121926040805190810160405280600781526020017f617070726f7665000000000000000000000000000000000000000000000000008152508c61246f565b1580156121db57506121d96040805190810160405280600881526020017f7472616e736665720000000000000000000000000000000000000000000000008152508c61246f565b155b15156121e657600080fd5b60006121f98c8c8c8c8c8c8c8c8c611fda565b905061220e8c8c8c8c8c8c8c8c8c8a8d6125b4565b151561221957600080fd5b8873ffffffffffffffffffffffffffffffffffffffff1663a2d578538b898f6040518463ffffffff167c0100000000000000000000000000000000000000000000000000000000028152600401808473ffffffffffffffffffffffffffffffffffffffff1673ffffffffffffffffffffffffffffffffffffffff16815260200183815260200180602001828103825283818151815260200191508051906020019080838360005b838110156122db5780820151818401526020810190506122c0565b50505050905090810190601f1680156123085780820380516001836020036101000a031916815260200191505b50945050505050600060405180830381600087803b15801561232957600080fd5b505af115801561233d573d6000803e3d6000fd5b5050505060019150509a9950505050505050505050565b600082821115151561236257fe5b818303905092915050565b6000806000806041855114151561238a576000935050505061244b565b6020850151925060408501519150606085015160001a9050601b8160ff1610156123b557601b810190505b601b8160ff16141580156123cd5750601c8160ff1614155b156123de576000935050505061244b565b60018682858560405160008152602001604052604051808581526020018460ff1660ff1681526020018381526020018281526020019450505050506020604051602081039080840390855afa15801561243b573d6000803e3d6000fd5b5050506020604051035193505050505b92915050565b600080828401905083811015151561246557fe5b8091505092915050565b60008151835114151561248557600090506125ae565b60008090505b83518110156125a85782818151811015156124a257fe5b9060200101517f010000000000000000000000000000000000000000000000000000000000000090047f0100000000000000000000000000000000000000000000000000000000000000027effffffffffffffffffffffffffffffffffffffffffffffffffffffffffffff1916848281518110151561251d57fe5b9060200101517f010000000000000000000000000000000000000000000000000000000000000090047f0100000000000000000000000000000000000000000000000000000000000000027effffffffffffffffffffffffffffffffffffffffffffffffffffffffffffff191614151561259b5760009150506125ae565b808060010191505061248b565b50600190505b92915050565b60008073ffffffffffffffffffffffffffffffffffffffff168b73ffffffffffffffffffffffffffffffffffffffff16148061262d57506125f48b6129aa565b15801561262c57508a73ffffffffffffffffffffffffffffffffffffffff163373ffffffffffffffffffffffffffffffffffffffff16145b5b80612712575061263c8b6129aa565b801561271157508a73ffffffffffffffffffffffffffffffffffffffff16638c0636866040518163ffffffff167c0100000000000000000000000000000000000000000000000000000000028152600401602060405180830381600087803b1580156126a757600080fd5b505af11580156126bb573d6000803e3d6000fd5b505050506040513d60208110156126d157600080fd5b810190808051906020019092919050505073ffffffffffffffffffffffffffffffffffffffff163373ffffffffffffffffffffffffffffffffffffffff16145b5b151561271d57600080fd5b6000612729848461236d565b90508073ffffffffffffffffffffffffffffffffffffffff168b73ffffffffffffffffffffffffffffffffffffffff1614151561276557600080fd5b854310151561277357600080fd5b600060066000868152602001908152602001600020549050600160066000878152602001908152602001600020819055506000811415156127b357600080fd5b87600560008e73ffffffffffffffffffffffffffffffffffffffff1673ffffffffffffffffffffffffffffffffffffffff16815260200190815260200160002060003373ffffffffffffffffffffffffffffffffffffffff1673ffffffffffffffffffffffffffffffffffffffff168152602001908152602001600020819055503373ffffffffffffffffffffffffffffffffffffffff168c73ffffffffffffffffffffffffffffffffffffffff167f8c5be1e5ebec7d5bd14f71427d1e84f3dd0314c0f7b2291e5b200ac8c7c3b9258a6040518082815260200191505060405180910390a36128a48c338a611888565b15156128af57600080fd5b88600560008e73ffffffffffffffffffffffffffffffffffffffff1673ffffffffffffffffffffffffffffffffffffffff16815260200190815260200160002060008d73ffffffffffffffffffffffffffffffffffffffff1673ffffffffffffffffffffffffffffffffffffffff168152602001908152602001600020819055508a73ffffffffffffffffffffffffffffffffffffffff168c73ffffffffffffffffffffffffffffffffffffffff167f8c5be1e5ebec7d5bd14f71427d1e84f3dd0314c0f7b2291e5b200ac8c7c3b9258b6040518082815260200191505060405180910390a36001925050509b9a5050505050505050505050565b600080823b90506000811191505091905056fe4c6176615061636b657428737472696e67206d6574686f644e616d652c616464726573732072656c6179417574686f726974792c616464726573732066726f6d2c6164647265737320746f2c616464726573732077616c6c65742c75696e7432353620746f6b656e732c75696e743235362072656c61796572526577617264546f6b656e732c75696e7432353620657870697265732c75696e74323536206e6f6e636529a165627a7a72305820d21139fb21b7c01ec96e864fba84dad7097c8dd3caf3a52226ba0f865d73e6020029",
  "source": "pragma solidity ^0.5.0;\n\n\n\n/*\nLAVA Token  (0xBTC Token Proxy with Lava Enabled)\n\nThis is a 0xBTC proxy token contract.  Deposit your 0xBTC in this contract to receive LAVA tokens.\n\nLAVA tokens can be spent not just by your address, but by anyone as long as they have an ECRecovery signature signed by your private key.\n\nThe signature is a 'lava packet signature.'  This means that LAVA can be sent by paying a fee of LAVA for the gas, not ETH.\n\nLAVA is 1:1 pegged to 0xBTC.\n\n*/\n\n\n/**\n * @title SafeMath\n * @dev Math operations with safety checks that throw on error\n */\nlibrary SafeMath {\n\n  /**\n  * @dev Multiplies two numbers, throws on overflow.\n  */\n  function mul(uint256 a, uint256 b) internal pure returns (uint256) {\n    if (a == 0) {\n      return 0;\n    }\n    uint256 c = a * b;\n    assert(c / a == b);\n    return c;\n  }\n\n  /**\n  * @dev Integer division of two numbers, truncating the quotient.\n  */\n  function div(uint256 a, uint256 b) internal pure returns (uint256) {\n    // assert(b > 0); // Solidity automatically throws when dividing by 0\n    uint256 c = a / b;\n    // assert(a == b * c + a % b); // There is no case in which this doesn't hold\n    return c;\n  }\n\n  /**\n  * @dev Substracts two numbers, throws on overflow (i.e. if subtrahend is greater than minuend).\n  */\n  function sub(uint256 a, uint256 b) internal pure returns (uint256) {\n    assert(b <= a);\n    return a - b;\n  }\n\n  /**\n  * @dev Adds two numbers, throws on overflow.\n  */\n  function add(uint256 a, uint256 b) internal pure returns (uint256) {\n    uint256 c = a + b;\n    assert(c >= a);\n    return c;\n  }\n}\n\n\ncontract ECRecovery {\n\n  /**\n   * @dev Recover signer address from a message by using their signature\n   * @param hash bytes32 message, the hash is the signed message. What is recovered is the signer address.\n   * @param sig bytes signature, the signature is generated using web3.eth.sign()\n   */\n  function recover(bytes32 hash, bytes memory sig) internal  pure returns (address) {\n    bytes32 r;\n    bytes32 s;\n    uint8 v;\n\n    //Check the signature length\n    if (sig.length != 65) {\n      return (address(0));\n    }\n\n    // Divide the signature in r, s and v variables\n    assembly {\n      r := mload(add(sig, 32))\n      s := mload(add(sig, 64))\n      v := byte(0, mload(add(sig, 96)))\n    }\n\n    // Version of signature should be 27 or 28, but 0 and 1 are also possible versions\n    if (v < 27) {\n      v += 27;\n    }\n\n    // If the version is correct return the signer address\n    if (v != 27 && v != 28) {\n      return (address(0));\n    } else {\n      return ecrecover(hash, v, r, s);\n    }\n  }\n\n}\n\n\n\ncontract RelayAuthorityInterface {\n    function getRelayAuthority() public returns (address);\n}\n\n\ncontract ERC20Interface {\n    function totalSupply() public view returns (uint);\n    function balanceOf(address tokenOwner) public view returns (uint balance);\n    function allowance(address tokenOwner, address spender) public view returns (uint remaining);\n    function transfer(address to, uint tokens) public returns (bool success);\n    function approve(address spender, uint tokens) public returns (bool success);\n    function transferFrom(address from, address to, uint tokens) public returns (bool success);\n\n    event Transfer(address indexed from, address indexed to, uint tokens);\n    event Approval(address indexed tokenOwner, address indexed spender, uint tokens);\n}\n\n\ncontract ApproveAndCallFallBack {\n    function receiveApproval(address from, uint256 tokens,  bytes memory data) public;\n}\n\n\ncontract LavaToken is ECRecovery{\n\n    using SafeMath for uint;\n\n\n    address constant public masterToken = 0x9D2Cc383E677292ed87f63586086CfF62a009010;\n\n    string public name     = \"Lava\";\n    string public symbol   = \"LAVA\";\n    uint8  public decimals = 8;\n    uint private _totalSupply;\n\n    event  Approval(address indexed src, address indexed ext, uint amt);\n    event  Transfer(address indexed src, address indexed dst, uint amt);\n    event  Deposit(address indexed dst, uint amt);\n    event  Withdrawal(address indexed src, uint amt);\n\n    mapping (address => uint)                       public  balances;\n    mapping (address => mapping (address => uint))  public  allowance;\n\n\n\n   mapping(bytes32 => uint256) public burnedSignatures;\n\n\n\n  struct LavaPacket {\n    string methodName;\n    address relayAuthority; //either a contract or an account\n    address from;\n    address to;\n    address wallet;  //this contract address\n    uint256 tokens;\n    uint256 relayerRewardTokens;\n    uint256 expires;\n    uint256 nonce;\n  }\n\n\n\n\n   bytes32 constant LAVAPACKET_TYPEHASH = keccak256(\n      \"LavaPacket(string methodName,address relayAuthority,address from,address to,address wallet,uint256 tokens,uint256 relayerRewardTokens,uint256 expires,uint256 nonce)\"\n  );\n\n   function getLavaPacketTypehash() public pure returns (bytes32) {\n      return LAVAPACKET_TYPEHASH;\n  }\n\n function getLavaPacketHash(string memory methodName, address relayAuthority,address from,address to, address wallet,uint256 tokens,uint256 relayerRewardTokens,uint256 expires,uint256 nonce) public pure returns (bytes32) {\n        return keccak256(abi.encode(\n            LAVAPACKET_TYPEHASH,\n            keccak256(bytes(methodName)),\n            relayAuthority,\n            from,\n            to,\n            wallet,\n            tokens,\n            relayerRewardTokens,\n            expires,\n            nonce\n        ));\n    }\n\n\n    constructor() public {\n\n    }\n\n    /**\n    * Do not allow Ether to enter\n    */\n     function() external payable\n     {\n         revert();\n     }\n\n\n    /**\n     *\n     * @dev Deposit original tokens, receive proxy tokens 1:1\n     *\n     * @param from Address to charge fees\n     * @param amount Amount of protocol tokens to charge\n     */\n    function mutateTokens( address from, uint amount) public returns (bool)\n    {\n        require( amount > 0 );\n\n        require( ERC20Interface( masterToken ).transferFrom( from, address(this), amount) );\n\n        balances[from] = balances[from].add(amount);\n        _totalSupply = _totalSupply.add(amount);\n\n        return true;\n    }\n\n\n\n    /**\n     * @dev Withdraw original tokens, burn proxy tokens 1:1\n     *\n     * @param from Address to charge fees\n     *\n     * @param amount Amount of protocol tokens to charge\n     */\n    function unmutateTokens(  address from, uint amount) public returns (bool)\n    {\n        require( amount > 0 );\n\n        balances[from] = balances[from].sub(amount);\n        _totalSupply = _totalSupply.sub(amount);\n\n        require( ERC20Interface( masterToken ).transferFrom( address(this), from, amount) );\n\n        return true;\n    }\n\n\n\n    function totalSupply() public view returns (uint) {\n        return _totalSupply;\n    }\n\n\n\n\n   //standard ERC20 method\n  function approve(address spender,   uint tokens) public returns (bool success) {\n      allowance[msg.sender][spender] = tokens;\n      emit Approval(msg.sender, spender, tokens);\n      return true;\n  }\n\n\n  //standard ERC20 method\n   function transferTokens(address to,  uint tokens) public returns (bool success) {\n\n        return transferTokensFrom(msg.sender, to, tokens);\n    }\n\n\n   //standard ERC20 method\n   function transferTokensFrom( address from, address to,  uint tokens) public returns (bool success) {\n       balances[from] = balances[from].sub(tokens);\n       allowance[from][to] = allowance[from][to].sub(tokens);\n       balances[to] = balances[to].add(tokens);\n       emit Transfer( from, to, tokens);\n       return true;\n   }\n\n\n\n  // function getLavaPacket(address from,)\n\n   //This replaces getLavaTypedDataHash .. how to handle methodName?\n\n   function getLavaTypedDataHash(string memory methodName, address relayAuthority,address from,address to, address wallet,uint256 tokens,uint256 relayerRewardTokens,uint256 expires,uint256 nonce) public  pure returns (bytes32) {\n\n\n          // Note: we need to use `encodePacked` here instead of `encode`.\n          bytes32 digest = keccak256(abi.encodePacked(\n              \"\\x19\\x01\",\n            //  DOMAIN_SEPARATOR,\n              getLavaPacketHash(methodName,relayAuthority,from,to,wallet,tokens,relayerRewardTokens,expires,nonce)\n          ));\n          return digest;\n      }\n\n\n\n\n   function _tokenApprovalWithSignature(  string memory methodName, address relayAuthority,address from,address to, address wallet,uint256 tokens,uint256 relayerRewardTokens,uint256 expires,uint256 nonce, bytes32 sigHash, bytes memory signature) internal returns (bool success)\n   {\n\n       /*\n        Always allow relaying a packet if the specified relayAuthority is 0.\n        If the authority address is not a contract, allow it to relay\n        If the authority address is a contract, allow its defined 'getAuthority()' delegate to relay\n       */\n\n       require( relayAuthority == address(0x0)\n         || (!addressContainsContract(relayAuthority) && msg.sender == relayAuthority)\n         || (addressContainsContract(relayAuthority) && msg.sender == RelayAuthorityInterface(relayAuthority).getRelayAuthority())  );\n\n\n\n       address recoveredSignatureSigner = recover(sigHash,signature);\n\n\n       //make sure the signer is the depositor of the tokens\n       require(from == recoveredSignatureSigner);\n\n\n       //make sure the signature has not expired\n       require(block.number < expires);\n\n       uint burnedSignature = burnedSignatures[sigHash];\n       burnedSignatures[sigHash] = 0x1; //spent\n       require(burnedSignature == 0x0);\n\n       //approve the relayer reward\n       allowance[from][msg.sender] = relayerRewardTokens;\n       emit Approval(from, msg.sender, relayerRewardTokens);\n\n       //transferRelayerReward\n       require(transferTokensFrom(from, msg.sender,   relayerRewardTokens));\n\n       //approve transfer of tokens\n       allowance[from][to] = tokens;\n       emit Approval(from,  to, tokens);\n\n\n       return true;\n   }\n\n\n\n   function approveTokensWithSignature(string memory methodName, address relayAuthority,address from,address to, address wallet,uint256 tokens,uint256 relayerRewardTokens,uint256 expires,uint256 nonce, bytes memory signature) public returns (bool success)\n   {\n       require(bytesEqual('approve',bytes(methodName)));\n\n       bytes32 sigHash = getLavaTypedDataHash(methodName,relayAuthority,from,to,wallet,tokens,relayerRewardTokens,expires,nonce);\n\n       require(_tokenApprovalWithSignature(methodName,relayAuthority,from,to,wallet,tokens,relayerRewardTokens,expires,nonce,sigHash,signature));\n\n\n       return true;\n   }\n\n\n  function transferTokensWithSignature(string memory methodName, address relayAuthority,address from,address to, address wallet,uint256 tokens,uint256 relayerRewardTokens,uint256 expires,uint256 nonce, bytes memory signature) public returns (bool success)\n  {\n\n      require(bytesEqual('transfer',bytes(methodName)));\n\n      //check to make sure that signature == ecrecover signature\n      bytes32 sigHash = getLavaTypedDataHash(methodName,relayAuthority,from,to,wallet,tokens,relayerRewardTokens,expires,nonce);\n\n      require(_tokenApprovalWithSignature(methodName,relayAuthority,from,to,wallet,tokens,relayerRewardTokens,expires,nonce,sigHash,signature));\n\n      //it can be requested that fewer tokens be sent that were approved -- the whole approval will be invalidated though\n      require(transferTokensFrom( from, to,  tokens));\n\n\n      return true;\n\n  }\n\n\n\n     function burnSignature( string memory methodName, address relayAuthority,address from,address to, address wallet,uint256 tokens,uint256 relayerRewardTokens,uint256 expires,uint256 nonce,  bytes memory signature) public returns (bool success)\n     {\n\n\n        bytes32 sigHash = getLavaTypedDataHash(methodName,relayAuthority,from,to,wallet,tokens,relayerRewardTokens,expires,nonce);\n\n         address recoveredSignatureSigner = recover(sigHash,signature);\n\n         //make sure the invalidator is the signer\n         require(recoveredSignatureSigner == from);\n\n         //only the original packet owner can burn signature, not a relay\n         require(from == msg.sender);\n\n         //make sure this signature has never been used\n         uint burnedSignature = burnedSignatures[sigHash];\n         burnedSignatures[sigHash] = 0x2; //invalidated\n         require(burnedSignature == 0x0);\n\n         return true;\n     }\n\n\n     function signatureBurnStatus(bytes32 digest) public view returns (uint)\n     {\n       return (burnedSignatures[digest]);\n     }\n\n\n\n\n       /*\n         Receive approval to spend tokens and perform any action all in one transaction\n       */\n     function receiveApproval(address from, uint256 tokens, bytes memory data) public returns (bool success) {\n\n        return mutateTokens(from,tokens);\n\n     }\n\n     /*\n      Approve lava tokens for a smart contract and call the contracts receiveApproval method all in one fell swoop\n\n\n      */\n     function approveAndCall( string memory methodName, address relayAuthority,address from,address to, address wallet,uint256 tokens,uint256 relayerRewardTokens,uint256 expires,uint256 nonce, bytes memory signature ) public returns (bool success)   {\n\n      // address from, address to, address token, uint256 tokens, uint256 relayerReward,  uint256 expires, uint256 nonce\n\n\n      require(!bytesEqual('approve',bytes(methodName))\n      && !bytesEqual('transfer',bytes(methodName))  );\n\n        bytes32 sigHash = getLavaTypedDataHash(methodName,relayAuthority,from,to,wallet,tokens,relayerRewardTokens,expires,nonce);\n\n        require(_tokenApprovalWithSignature(methodName,relayAuthority,from,to,wallet,tokens,relayerRewardTokens,expires,nonce,sigHash,signature));\n\n        ApproveAndCallFallBack(to).receiveApproval(from, tokens,  bytes(methodName));\n\n        return true;\n     }\n\n\n\n     function addressContainsContract(address _to) view internal returns (bool)\n     {\n       uint codeLength;\n\n        assembly {\n            // Retrieve the size of the code on target address, this needs assembly .\n            codeLength := extcodesize(_to)\n        }\n\n         return (codeLength>0);\n     }\n\n\n     function bytesEqual(bytes memory b1,bytes memory b2) pure internal returns (bool)\n        {\n          if(b1.length != b2.length) return false;\n\n          for (uint i=0; i<b1.length; i++) {\n            if(b1[i] != b2[i]) return false;\n          }\n\n          return true;\n        }\n\n\n\n\n}\n",
  "sourcePath": "/home/lubuntu/dev/0xlavatoken/contracts/LavaTokenv2.sol",
  "compiler": {
    "name": "solc",
    "version": "0.5.0+commit.1d4f565a.Emscripten.clang"
  },
  "schemaVersion": "3.0.2",
  "updatedAt": "2019-03-13T15:22:59.770Z",
  "devdoc": {
    "methods": {
      "mutateTokens(address,uint256)": {
        "details": "Deposit original tokens, receive proxy tokens 1:1",
        "params": {
          "amount": "Amount of protocol tokens to charge",
          "from": "Address to charge fees"
        }
      },
      "unmutateTokens(address,uint256)": {
        "details": "Withdraw original tokens, burn proxy tokens 1:1",
        "params": {
          "amount": "Amount of protocol tokens to charge",
          "from": "Address to charge fees"
        }
      }
    }
  },
  "userdoc": {
    "methods": {}
  }
}