{
  "contractName": "LavaWallet",
  "abi": [
    {
      "inputs": [],
      "payable": false,
      "stateMutability": "nonpayable",
      "type": "constructor"
    },
    {
      "anonymous": false,
      "inputs": [
        {
          "indexed": true,
          "internalType": "address",
          "name": "tokenOwner",
          "type": "address"
        },
        {
          "indexed": true,
          "internalType": "address",
          "name": "spender",
          "type": "address"
        },
        {
          "indexed": false,
          "internalType": "address",
          "name": "token",
          "type": "address"
        },
        {
          "indexed": false,
          "internalType": "uint256",
          "name": "tokens",
          "type": "uint256"
        }
      ],
      "name": "Approval",
      "type": "event"
    },
    {
      "anonymous": false,
      "inputs": [
        {
          "indexed": false,
          "internalType": "address",
          "name": "token",
          "type": "address"
        },
        {
          "indexed": false,
          "internalType": "address",
          "name": "user",
          "type": "address"
        },
        {
          "indexed": false,
          "internalType": "uint256",
          "name": "amount",
          "type": "uint256"
        },
        {
          "indexed": false,
          "internalType": "uint256",
          "name": "balance",
          "type": "uint256"
        }
      ],
      "name": "Deposit",
      "type": "event"
    },
    {
      "anonymous": false,
      "inputs": [
        {
          "indexed": true,
          "internalType": "address",
          "name": "from",
          "type": "address"
        },
        {
          "indexed": true,
          "internalType": "address",
          "name": "to",
          "type": "address"
        },
        {
          "indexed": false,
          "internalType": "address",
          "name": "token",
          "type": "address"
        },
        {
          "indexed": false,
          "internalType": "uint256",
          "name": "tokens",
          "type": "uint256"
        }
      ],
      "name": "Transfer",
      "type": "event"
    },
    {
      "anonymous": false,
      "inputs": [
        {
          "indexed": false,
          "internalType": "address",
          "name": "token",
          "type": "address"
        },
        {
          "indexed": false,
          "internalType": "address",
          "name": "user",
          "type": "address"
        },
        {
          "indexed": false,
          "internalType": "uint256",
          "name": "amount",
          "type": "uint256"
        },
        {
          "indexed": false,
          "internalType": "uint256",
          "name": "balance",
          "type": "uint256"
        }
      ],
      "name": "Withdraw",
      "type": "event"
    },
    {
      "payable": true,
      "stateMutability": "payable",
      "type": "fallback"
    },
    {
      "constant": true,
      "inputs": [],
      "name": "getLavaPacketTypehash",
      "outputs": [
        {
          "internalType": "bytes32",
          "name": "",
          "type": "bytes32"
        }
      ],
      "payable": false,
      "stateMutability": "view",
      "type": "function"
    },
    {
      "constant": true,
      "inputs": [
        {
          "components": [
            {
              "internalType": "string",
              "name": "methodName",
              "type": "string"
            },
            {
              "internalType": "address",
              "name": "relayAuthority",
              "type": "address"
            },
            {
              "internalType": "address",
              "name": "from",
              "type": "address"
            },
            {
              "internalType": "address",
              "name": "to",
              "type": "address"
            },
            {
              "internalType": "address",
              "name": "wallet",
              "type": "address"
            },
            {
              "internalType": "address",
              "name": "token",
              "type": "address"
            },
            {
              "internalType": "uint256",
              "name": "tokens",
              "type": "uint256"
            },
            {
              "internalType": "address",
              "name": "relayerRewardToken",
              "type": "address"
            },
            {
              "internalType": "uint256",
              "name": "relayerRewardTokens",
              "type": "uint256"
            },
            {
              "internalType": "uint256",
              "name": "expires",
              "type": "uint256"
            },
            {
              "internalType": "uint256",
              "name": "nonce",
              "type": "uint256"
            }
          ],
          "internalType": "struct LavaWallet.LavaPacket",
          "name": "packet",
          "type": "tuple"
        }
      ],
      "name": "getLavaPacketHash",
      "outputs": [
        {
          "internalType": "bytes32",
          "name": "",
          "type": "bytes32"
        }
      ],
      "payable": false,
      "stateMutability": "view",
      "type": "function"
    },
    {
      "constant": false,
      "inputs": [
        {
          "internalType": "address",
          "name": "from",
          "type": "address"
        },
        {
          "internalType": "address",
          "name": "token",
          "type": "address"
        },
        {
          "internalType": "uint256",
          "name": "tokens",
          "type": "uint256"
        }
      ],
      "name": "depositTokens",
      "outputs": [
        {
          "internalType": "bool",
          "name": "success",
          "type": "bool"
        }
      ],
      "payable": false,
      "stateMutability": "nonpayable",
      "type": "function"
    },
    {
      "constant": false,
      "inputs": [
        {
          "internalType": "address",
          "name": "token",
          "type": "address"
        },
        {
          "internalType": "uint256",
          "name": "tokens",
          "type": "uint256"
        }
      ],
      "name": "withdrawTokens",
      "outputs": [
        {
          "internalType": "bool",
          "name": "success",
          "type": "bool"
        }
      ],
      "payable": false,
      "stateMutability": "nonpayable",
      "type": "function"
    },
    {
      "constant": false,
      "inputs": [
        {
          "internalType": "address",
          "name": "from",
          "type": "address"
        },
        {
          "internalType": "address",
          "name": "to",
          "type": "address"
        },
        {
          "internalType": "address",
          "name": "token",
          "type": "address"
        },
        {
          "internalType": "uint256",
          "name": "tokens",
          "type": "uint256"
        }
      ],
      "name": "withdrawTokensFrom",
      "outputs": [
        {
          "internalType": "bool",
          "name": "success",
          "type": "bool"
        }
      ],
      "payable": false,
      "stateMutability": "nonpayable",
      "type": "function"
    },
    {
      "constant": true,
      "inputs": [
        {
          "internalType": "address",
          "name": "token",
          "type": "address"
        },
        {
          "internalType": "address",
          "name": "user",
          "type": "address"
        }
      ],
      "name": "balanceOf",
      "outputs": [
        {
          "internalType": "uint256",
          "name": "",
          "type": "uint256"
        }
      ],
      "payable": false,
      "stateMutability": "view",
      "type": "function"
    },
    {
      "constant": true,
      "inputs": [
        {
          "internalType": "address",
          "name": "token",
          "type": "address"
        },
        {
          "internalType": "address",
          "name": "tokenOwner",
          "type": "address"
        },
        {
          "internalType": "address",
          "name": "spender",
          "type": "address"
        }
      ],
      "name": "allowance",
      "outputs": [
        {
          "internalType": "uint256",
          "name": "remaining",
          "type": "uint256"
        }
      ],
      "payable": false,
      "stateMutability": "view",
      "type": "function"
    },
    {
      "constant": false,
      "inputs": [
        {
          "internalType": "address",
          "name": "spender",
          "type": "address"
        },
        {
          "internalType": "address",
          "name": "token",
          "type": "address"
        },
        {
          "internalType": "uint256",
          "name": "tokens",
          "type": "uint256"
        }
      ],
      "name": "approveTokens",
      "outputs": [
        {
          "internalType": "bool",
          "name": "success",
          "type": "bool"
        }
      ],
      "payable": false,
      "stateMutability": "nonpayable",
      "type": "function"
    },
    {
      "constant": false,
      "inputs": [
        {
          "internalType": "address",
          "name": "to",
          "type": "address"
        },
        {
          "internalType": "address",
          "name": "token",
          "type": "address"
        },
        {
          "internalType": "uint256",
          "name": "tokens",
          "type": "uint256"
        }
      ],
      "name": "transferTokens",
      "outputs": [
        {
          "internalType": "bool",
          "name": "success",
          "type": "bool"
        }
      ],
      "payable": false,
      "stateMutability": "nonpayable",
      "type": "function"
    },
    {
      "constant": false,
      "inputs": [
        {
          "internalType": "address",
          "name": "from",
          "type": "address"
        },
        {
          "internalType": "address",
          "name": "to",
          "type": "address"
        },
        {
          "internalType": "address",
          "name": "token",
          "type": "address"
        },
        {
          "internalType": "uint256",
          "name": "tokens",
          "type": "uint256"
        }
      ],
      "name": "transferTokensFrom",
      "outputs": [
        {
          "internalType": "bool",
          "name": "success",
          "type": "bool"
        }
      ],
      "payable": false,
      "stateMutability": "nonpayable",
      "type": "function"
    },
    {
      "constant": true,
      "inputs": [
        {
          "components": [
            {
              "internalType": "string",
              "name": "methodName",
              "type": "string"
            },
            {
              "internalType": "address",
              "name": "relayAuthority",
              "type": "address"
            },
            {
              "internalType": "address",
              "name": "from",
              "type": "address"
            },
            {
              "internalType": "address",
              "name": "to",
              "type": "address"
            },
            {
              "internalType": "address",
              "name": "wallet",
              "type": "address"
            },
            {
              "internalType": "address",
              "name": "token",
              "type": "address"
            },
            {
              "internalType": "uint256",
              "name": "tokens",
              "type": "uint256"
            },
            {
              "internalType": "address",
              "name": "relayerRewardToken",
              "type": "address"
            },
            {
              "internalType": "uint256",
              "name": "relayerRewardTokens",
              "type": "uint256"
            },
            {
              "internalType": "uint256",
              "name": "expires",
              "type": "uint256"
            },
            {
              "internalType": "uint256",
              "name": "nonce",
              "type": "uint256"
            }
          ],
          "internalType": "struct LavaWallet.LavaPacket",
          "name": "packet",
          "type": "tuple"
        }
      ],
      "name": "getLavaTypedDataHash",
      "outputs": [
        {
          "internalType": "bytes32",
          "name": "",
          "type": "bytes32"
        }
      ],
      "payable": false,
      "stateMutability": "view",
      "type": "function"
    },
    {
      "constant": false,
      "inputs": [
        {
          "components": [
            {
              "internalType": "string",
              "name": "methodName",
              "type": "string"
            },
            {
              "internalType": "address",
              "name": "relayAuthority",
              "type": "address"
            },
            {
              "internalType": "address",
              "name": "from",
              "type": "address"
            },
            {
              "internalType": "address",
              "name": "to",
              "type": "address"
            },
            {
              "internalType": "address",
              "name": "wallet",
              "type": "address"
            },
            {
              "internalType": "address",
              "name": "token",
              "type": "address"
            },
            {
              "internalType": "uint256",
              "name": "tokens",
              "type": "uint256"
            },
            {
              "internalType": "address",
              "name": "relayerRewardToken",
              "type": "address"
            },
            {
              "internalType": "uint256",
              "name": "relayerRewardTokens",
              "type": "uint256"
            },
            {
              "internalType": "uint256",
              "name": "expires",
              "type": "uint256"
            },
            {
              "internalType": "uint256",
              "name": "nonce",
              "type": "uint256"
            }
          ],
          "internalType": "struct LavaWallet.LavaPacket",
          "name": "packet",
          "type": "tuple"
        },
        {
          "internalType": "bytes",
          "name": "signature",
          "type": "bytes"
        }
      ],
      "name": "approveTokensWithSignature",
      "outputs": [
        {
          "internalType": "bool",
          "name": "success",
          "type": "bool"
        }
      ],
      "payable": false,
      "stateMutability": "nonpayable",
      "type": "function"
    },
    {
      "constant": false,
      "inputs": [
        {
          "components": [
            {
              "internalType": "string",
              "name": "methodName",
              "type": "string"
            },
            {
              "internalType": "address",
              "name": "relayAuthority",
              "type": "address"
            },
            {
              "internalType": "address",
              "name": "from",
              "type": "address"
            },
            {
              "internalType": "address",
              "name": "to",
              "type": "address"
            },
            {
              "internalType": "address",
              "name": "wallet",
              "type": "address"
            },
            {
              "internalType": "address",
              "name": "token",
              "type": "address"
            },
            {
              "internalType": "uint256",
              "name": "tokens",
              "type": "uint256"
            },
            {
              "internalType": "address",
              "name": "relayerRewardToken",
              "type": "address"
            },
            {
              "internalType": "uint256",
              "name": "relayerRewardTokens",
              "type": "uint256"
            },
            {
              "internalType": "uint256",
              "name": "expires",
              "type": "uint256"
            },
            {
              "internalType": "uint256",
              "name": "nonce",
              "type": "uint256"
            }
          ],
          "internalType": "struct LavaWallet.LavaPacket",
          "name": "packet",
          "type": "tuple"
        },
        {
          "internalType": "bytes",
          "name": "signature",
          "type": "bytes"
        }
      ],
      "name": "transferTokensWithSignature",
      "outputs": [
        {
          "internalType": "bool",
          "name": "success",
          "type": "bool"
        }
      ],
      "payable": false,
      "stateMutability": "nonpayable",
      "type": "function"
    },
    {
      "constant": false,
      "inputs": [
        {
          "components": [
            {
              "internalType": "string",
              "name": "methodName",
              "type": "string"
            },
            {
              "internalType": "address",
              "name": "relayAuthority",
              "type": "address"
            },
            {
              "internalType": "address",
              "name": "from",
              "type": "address"
            },
            {
              "internalType": "address",
              "name": "to",
              "type": "address"
            },
            {
              "internalType": "address",
              "name": "wallet",
              "type": "address"
            },
            {
              "internalType": "address",
              "name": "token",
              "type": "address"
            },
            {
              "internalType": "uint256",
              "name": "tokens",
              "type": "uint256"
            },
            {
              "internalType": "address",
              "name": "relayerRewardToken",
              "type": "address"
            },
            {
              "internalType": "uint256",
              "name": "relayerRewardTokens",
              "type": "uint256"
            },
            {
              "internalType": "uint256",
              "name": "expires",
              "type": "uint256"
            },
            {
              "internalType": "uint256",
              "name": "nonce",
              "type": "uint256"
            }
          ],
          "internalType": "struct LavaWallet.LavaPacket",
          "name": "packet",
          "type": "tuple"
        },
        {
          "internalType": "bytes",
          "name": "signature",
          "type": "bytes"
        }
      ],
      "name": "withdrawTokensWithSignature",
      "outputs": [
        {
          "internalType": "bool",
          "name": "success",
          "type": "bool"
        }
      ],
      "payable": false,
      "stateMutability": "nonpayable",
      "type": "function"
    },
    {
      "constant": false,
      "inputs": [
        {
          "components": [
            {
              "internalType": "string",
              "name": "methodName",
              "type": "string"
            },
            {
              "internalType": "address",
              "name": "relayAuthority",
              "type": "address"
            },
            {
              "internalType": "address",
              "name": "from",
              "type": "address"
            },
            {
              "internalType": "address",
              "name": "to",
              "type": "address"
            },
            {
              "internalType": "address",
              "name": "wallet",
              "type": "address"
            },
            {
              "internalType": "address",
              "name": "token",
              "type": "address"
            },
            {
              "internalType": "uint256",
              "name": "tokens",
              "type": "uint256"
            },
            {
              "internalType": "address",
              "name": "relayerRewardToken",
              "type": "address"
            },
            {
              "internalType": "uint256",
              "name": "relayerRewardTokens",
              "type": "uint256"
            },
            {
              "internalType": "uint256",
              "name": "expires",
              "type": "uint256"
            },
            {
              "internalType": "uint256",
              "name": "nonce",
              "type": "uint256"
            }
          ],
          "internalType": "struct LavaWallet.LavaPacket",
          "name": "packet",
          "type": "tuple"
        },
        {
          "internalType": "bytes",
          "name": "signature",
          "type": "bytes"
        }
      ],
      "name": "burnSignature",
      "outputs": [
        {
          "internalType": "bool",
          "name": "success",
          "type": "bool"
        }
      ],
      "payable": false,
      "stateMutability": "nonpayable",
      "type": "function"
    },
    {
      "constant": true,
      "inputs": [
        {
          "internalType": "bytes32",
          "name": "digest",
          "type": "bytes32"
        }
      ],
      "name": "signatureBurnStatus",
      "outputs": [
        {
          "internalType": "uint256",
          "name": "",
          "type": "uint256"
        }
      ],
      "payable": false,
      "stateMutability": "view",
      "type": "function"
    },
    {
      "constant": false,
      "inputs": [
        {
          "internalType": "address",
          "name": "from",
          "type": "address"
        },
        {
          "internalType": "uint256",
          "name": "tokens",
          "type": "uint256"
        },
        {
          "internalType": "address",
          "name": "token",
          "type": "address"
        },
        {
          "internalType": "bytes",
          "name": "data",
          "type": "bytes"
        }
      ],
      "name": "receiveApproval",
      "outputs": [
        {
          "internalType": "bool",
          "name": "success",
          "type": "bool"
        }
      ],
      "payable": false,
      "stateMutability": "nonpayable",
      "type": "function"
    },
    {
      "constant": false,
      "inputs": [
        {
          "components": [
            {
              "internalType": "string",
              "name": "methodName",
              "type": "string"
            },
            {
              "internalType": "address",
              "name": "relayAuthority",
              "type": "address"
            },
            {
              "internalType": "address",
              "name": "from",
              "type": "address"
            },
            {
              "internalType": "address",
              "name": "to",
              "type": "address"
            },
            {
              "internalType": "address",
              "name": "wallet",
              "type": "address"
            },
            {
              "internalType": "address",
              "name": "token",
              "type": "address"
            },
            {
              "internalType": "uint256",
              "name": "tokens",
              "type": "uint256"
            },
            {
              "internalType": "address",
              "name": "relayerRewardToken",
              "type": "address"
            },
            {
              "internalType": "uint256",
              "name": "relayerRewardTokens",
              "type": "uint256"
            },
            {
              "internalType": "uint256",
              "name": "expires",
              "type": "uint256"
            },
            {
              "internalType": "uint256",
              "name": "nonce",
              "type": "uint256"
            }
          ],
          "internalType": "struct LavaWallet.LavaPacket",
          "name": "packet",
          "type": "tuple"
        },
        {
          "internalType": "bytes",
          "name": "signature",
          "type": "bytes"
        }
      ],
      "name": "approveAndCall",
      "outputs": [
        {
          "internalType": "bool",
          "name": "success",
          "type": "bool"
        }
      ],
      "payable": false,
      "stateMutability": "nonpayable",
      "type": "function"
    }
  ],
  "bytecode": "0x608060405234801561001057600080fd5b50612f6c806100206000396000f3fe6080604052600436106101095760003560e01c8063a1b54f6811610095578063c375ba8a11610064578063c375ba8a14610427578063c4608b2914610452578063d13c1a421461048f578063f7888aec146104cc578063fbed3dd81461050957610109565b8063a1b54f6814610333578063a64b6e5f14610370578063b0e0ef09146103ad578063bc6e4db7146103ea57610109565b80634b17bdd8116100dc5780634b17bdd814610202578063775fe5701461023f5780638f4ffcb11461027c578063912d6e28146102b9578063927da105146102f657610109565b806306b091f91461010e578063094171101461014b57806339dc5ef2146101885780633ba3a427146101c5575b600080fd5b34801561011a57600080fd5b5061013560048036036101309190810190612681565b610546565b6040516101429190612bdf565b60405180910390f35b34801561015757600080fd5b50610172600480360361016d9190810190612761565b6107ad565b60405161017f9190612d14565b60405180910390f35b34801561019457600080fd5b506101af60048036036101aa9190810190612632565b6107ca565b6040516101bc9190612bdf565b60405180910390f35b3480156101d157600080fd5b506101ec60048036036101e7919081019061278a565b610a34565b6040516101f99190612bfa565b60405180910390f35b34801561020e57600080fd5b50610229600480360361022491908101906125cf565b610ac3565b6040516102369190612bdf565b60405180910390f35b34801561024b57600080fd5b506102666004803603610261919081019061278a565b610edb565b6040516102739190612bfa565b60405180910390f35b34801561028857600080fd5b506102a3600480360361029e91908101906126bd565b610f18565b6040516102b09190612bdf565b60405180910390f35b3480156102c557600080fd5b506102e060048036036102db9190810190612632565b610f2f565b6040516102ed9190612bdf565b60405180910390f35b34801561030257600080fd5b5061031d60048036036103189190810190612580565b611061565b60405161032a9190612d14565b60405180910390f35b34801561033f57600080fd5b5061035a600480360361035591908101906127cb565b611126565b6040516103679190612bdf565b60405180910390f35b34801561037c57600080fd5b5061039760048036036103929190810190612632565b6111c5565b6040516103a49190612bdf565b60405180910390f35b3480156103b957600080fd5b506103d460048036036103cf91908101906125cf565b611453565b6040516103e19190612bdf565b60405180910390f35b3480156103f657600080fd5b50610411600480360361040c91908101906127cb565b611845565b60405161041e9190612bdf565b60405180910390f35b34801561043357600080fd5b5061043c6118e4565b6040516104499190612bfa565b60405180910390f35b34801561045e57600080fd5b50610479600480360361047491908101906127cb565b6118ff565b6040516104869190612bdf565b60405180910390f35b34801561049b57600080fd5b506104b660048036036104b191908101906127cb565b6119dd565b6040516104c39190612bdf565b60405180910390f35b3480156104d857600080fd5b506104f360048036036104ee9190810190612544565b611b75565b6040516105009190612d14565b60405180910390f35b34801561051557600080fd5b50610530600480360361052b91908101906127cb565b611bfb565b60405161053d9190612bdf565b60405180910390f35b60006105d6826000808673ffffffffffffffffffffffffffffffffffffffff1673ffffffffffffffffffffffffffffffffffffffff16815260200190815260200160002060003373ffffffffffffffffffffffffffffffffffffffff1673ffffffffffffffffffffffffffffffffffffffff16815260200190815260200160002054611c7590919063ffffffff16565b6000808573ffffffffffffffffffffffffffffffffffffffff1673ffffffffffffffffffffffffffffffffffffffff16815260200190815260200160002060003373ffffffffffffffffffffffffffffffffffffffff1673ffffffffffffffffffffffffffffffffffffffff168152602001908152602001600020819055508273ffffffffffffffffffffffffffffffffffffffff1663a9059cbb33846040518363ffffffff1660e01b8152600401610690929190612a80565b602060405180830381600087803b1580156106aa57600080fd5b505af11580156106be573d6000803e3d6000fd5b505050506040513d601f19601f820116820180604052506106e29190810190612738565b6106eb57600080fd5b7ff341246adaac6f497bc2a656f546ab9e182111d630394f0c57c710a59a2cb5678333846000808873ffffffffffffffffffffffffffffffffffffffff1673ffffffffffffffffffffffffffffffffffffffff16815260200190815260200160002060003373ffffffffffffffffffffffffffffffffffffffff1673ffffffffffffffffffffffffffffffffffffffff1681526020019081526020016000205460405161079b9493929190612ae0565b60405180910390a16001905092915050565b600060026000838152602001908152602001600020549050919050565b60008273ffffffffffffffffffffffffffffffffffffffff166323b872dd8530856040518463ffffffff1660e01b815260040161080993929190612aa9565b602060405180830381600087803b15801561082357600080fd5b505af1158015610837573d6000803e3d6000fd5b505050506040513d601f19601f8201168201806040525061085b9190810190612738565b61086457600080fd5b6108f2826000808673ffffffffffffffffffffffffffffffffffffffff1673ffffffffffffffffffffffffffffffffffffffff16815260200190815260200160002060008773ffffffffffffffffffffffffffffffffffffffff1673ffffffffffffffffffffffffffffffffffffffff16815260200190815260200160002054611c8c90919063ffffffff16565b6000808573ffffffffffffffffffffffffffffffffffffffff1673ffffffffffffffffffffffffffffffffffffffff16815260200190815260200160002060008673ffffffffffffffffffffffffffffffffffffffff1673ffffffffffffffffffffffffffffffffffffffff168152602001908152602001600020819055507fdcbc1c05240f31ff3ad067ef1ee35ce4997762752e3a095284754544f4c709d78385846000808873ffffffffffffffffffffffffffffffffffffffff1673ffffffffffffffffffffffffffffffffffffffff16815260200190815260200160002060008973ffffffffffffffffffffffffffffffffffffffff1673ffffffffffffffffffffffffffffffffffffffff16815260200190815260200160002054604051610a219493929190612b25565b60405180910390a1600190509392505050565b6000604051610a4290612a6b565b604051809103902082600001518051906020012083602001518460400151856060015186608001518760a001518860c001518960e001518a61010001518b61012001518c6101400151604051602001610aa69c9b9a99989796959493929190612c15565b604051602081830303815290604052805190602001209050919050565b6000610b53826000808673ffffffffffffffffffffffffffffffffffffffff1673ffffffffffffffffffffffffffffffffffffffff16815260200190815260200160002060008873ffffffffffffffffffffffffffffffffffffffff1673ffffffffffffffffffffffffffffffffffffffff16815260200190815260200160002054611c7590919063ffffffff16565b6000808573ffffffffffffffffffffffffffffffffffffffff1673ffffffffffffffffffffffffffffffffffffffff16815260200190815260200160002060008773ffffffffffffffffffffffffffffffffffffffff1673ffffffffffffffffffffffffffffffffffffffff16815260200190815260200160002081905550610c9e82600160008673ffffffffffffffffffffffffffffffffffffffff1673ffffffffffffffffffffffffffffffffffffffff16815260200190815260200160002060008873ffffffffffffffffffffffffffffffffffffffff1673ffffffffffffffffffffffffffffffffffffffff16815260200190815260200160002060008773ffffffffffffffffffffffffffffffffffffffff1673ffffffffffffffffffffffffffffffffffffffff16815260200190815260200160002054611c7590919063ffffffff16565b600160008573ffffffffffffffffffffffffffffffffffffffff1673ffffffffffffffffffffffffffffffffffffffff16815260200190815260200160002060008773ffffffffffffffffffffffffffffffffffffffff1673ffffffffffffffffffffffffffffffffffffffff16815260200190815260200160002060008673ffffffffffffffffffffffffffffffffffffffff1673ffffffffffffffffffffffffffffffffffffffff16815260200190815260200160002081905550610de9826000808673ffffffffffffffffffffffffffffffffffffffff1673ffffffffffffffffffffffffffffffffffffffff16815260200190815260200160002060008773ffffffffffffffffffffffffffffffffffffffff1673ffffffffffffffffffffffffffffffffffffffff16815260200190815260200160002054611c8c90919063ffffffff16565b6000808573ffffffffffffffffffffffffffffffffffffffff1673ffffffffffffffffffffffffffffffffffffffff16815260200190815260200160002060008673ffffffffffffffffffffffffffffffffffffffff1673ffffffffffffffffffffffffffffffffffffffff168152602001908152602001600020819055508473ffffffffffffffffffffffffffffffffffffffff168373ffffffffffffffffffffffffffffffffffffffff167fd1398bee19313d6bf672ccb116e51f4a1a947e91c757907f51fbb5b5e56c698f8685604051610ec7929190612b6a565b60405180910390a360019050949350505050565b600080610ee783610a34565b604051602001610ef79190612a45565b60405160208183030381529060405280519060200120905080915050919050565b6000610f258584866107ca565b9050949350505050565b600081600160008573ffffffffffffffffffffffffffffffffffffffff1673ffffffffffffffffffffffffffffffffffffffff16815260200190815260200160002060003373ffffffffffffffffffffffffffffffffffffffff1673ffffffffffffffffffffffffffffffffffffffff16815260200190815260200160002060008673ffffffffffffffffffffffffffffffffffffffff1673ffffffffffffffffffffffffffffffffffffffff168152602001908152602001600020819055508273ffffffffffffffffffffffffffffffffffffffff163373ffffffffffffffffffffffffffffffffffffffff167fa0175360a15bca328baf7ea85c7b784d58b222a50d0ce760b10dba336d226a61868560405161104e929190612b6a565b60405180910390a3600190509392505050565b6000600160008573ffffffffffffffffffffffffffffffffffffffff1673ffffffffffffffffffffffffffffffffffffffff16815260200190815260200160002060008473ffffffffffffffffffffffffffffffffffffffff1673ffffffffffffffffffffffffffffffffffffffff16815260200190815260200160002060008373ffffffffffffffffffffffffffffffffffffffff1673ffffffffffffffffffffffffffffffffffffffff1681526020019081526020016000205490509392505050565b600061116b6040518060400160405280600881526020017f77697468647261770000000000000000000000000000000000000000000000008152508460000151611ca8565b61117457600080fd5b600061117f84610edb565b905061118c848285611d65565b61119557600080fd5b6111b1846040015185606001518660a001518760c00151611453565b6111ba57600080fd5b600191505092915050565b6000611255826000808673ffffffffffffffffffffffffffffffffffffffff1673ffffffffffffffffffffffffffffffffffffffff16815260200190815260200160002060003373ffffffffffffffffffffffffffffffffffffffff1673ffffffffffffffffffffffffffffffffffffffff16815260200190815260200160002054611c7590919063ffffffff16565b6000808573ffffffffffffffffffffffffffffffffffffffff1673ffffffffffffffffffffffffffffffffffffffff16815260200190815260200160002060003373ffffffffffffffffffffffffffffffffffffffff1673ffffffffffffffffffffffffffffffffffffffff16815260200190815260200160002081905550611362826000808673ffffffffffffffffffffffffffffffffffffffff1673ffffffffffffffffffffffffffffffffffffffff16815260200190815260200160002060008773ffffffffffffffffffffffffffffffffffffffff1673ffffffffffffffffffffffffffffffffffffffff16815260200190815260200160002054611c8c90919063ffffffff16565b6000808573ffffffffffffffffffffffffffffffffffffffff1673ffffffffffffffffffffffffffffffffffffffff16815260200190815260200160002060008673ffffffffffffffffffffffffffffffffffffffff1673ffffffffffffffffffffffffffffffffffffffff168152602001908152602001600020819055508273ffffffffffffffffffffffffffffffffffffffff163373ffffffffffffffffffffffffffffffffffffffff167fd1398bee19313d6bf672ccb116e51f4a1a947e91c757907f51fbb5b5e56c698f8685604051611440929190612b6a565b60405180910390a3600190509392505050565b600061152182600160008673ffffffffffffffffffffffffffffffffffffffff1673ffffffffffffffffffffffffffffffffffffffff16815260200190815260200160002060008873ffffffffffffffffffffffffffffffffffffffff1673ffffffffffffffffffffffffffffffffffffffff16815260200190815260200160002060008773ffffffffffffffffffffffffffffffffffffffff1673ffffffffffffffffffffffffffffffffffffffff16815260200190815260200160002054611c7590919063ffffffff16565b600160008573ffffffffffffffffffffffffffffffffffffffff1673ffffffffffffffffffffffffffffffffffffffff16815260200190815260200160002060008773ffffffffffffffffffffffffffffffffffffffff1673ffffffffffffffffffffffffffffffffffffffff16815260200190815260200160002060008673ffffffffffffffffffffffffffffffffffffffff1673ffffffffffffffffffffffffffffffffffffffff1681526020019081526020016000208190555061166c826000808673ffffffffffffffffffffffffffffffffffffffff1673ffffffffffffffffffffffffffffffffffffffff16815260200190815260200160002060008873ffffffffffffffffffffffffffffffffffffffff1673ffffffffffffffffffffffffffffffffffffffff16815260200190815260200160002054611c7590919063ffffffff16565b6000808573ffffffffffffffffffffffffffffffffffffffff1673ffffffffffffffffffffffffffffffffffffffff16815260200190815260200160002060008773ffffffffffffffffffffffffffffffffffffffff1673ffffffffffffffffffffffffffffffffffffffff168152602001908152602001600020819055508273ffffffffffffffffffffffffffffffffffffffff1663a9059cbb85846040518363ffffffff1660e01b8152600401611726929190612b6a565b602060405180830381600087803b15801561174057600080fd5b505af1158015611754573d6000803e3d6000fd5b505050506040513d601f19601f820116820180604052506117789190810190612738565b61178157600080fd5b7ff341246adaac6f497bc2a656f546ab9e182111d630394f0c57c710a59a2cb5678386846000808873ffffffffffffffffffffffffffffffffffffffff1673ffffffffffffffffffffffffffffffffffffffff16815260200190815260200160002060008a73ffffffffffffffffffffffffffffffffffffffff1673ffffffffffffffffffffffffffffffffffffffff168152602001908152602001600020546040516118319493929190612b25565b60405180910390a160019050949350505050565b600061188a6040518060400160405280600881526020017f7472616e736665720000000000000000000000000000000000000000000000008152508460000151611ca8565b61189357600080fd5b600061189e84610edb565b90506118ab848285611d65565b6118b457600080fd5b6118d0846040015185606001518660a001518760c00151610ac3565b6118d957600080fd5b600191505092915050565b60006040516118f290612a6b565b6040518091039020905090565b60008061190b84610edb565b90506000611919828561220d565b9050846040015173ffffffffffffffffffffffffffffffffffffffff168173ffffffffffffffffffffffffffffffffffffffff161461195757600080fd5b3373ffffffffffffffffffffffffffffffffffffffff16856040015173ffffffffffffffffffffffffffffffffffffffff161461199357600080fd5b600060026000848152602001908152602001600020549050600280600085815260200190815260200160002081905550600081146119d057600080fd5b6001935050505092915050565b6000611a226040518060400160405280600781526020017f617070726f7665000000000000000000000000000000000000000000000000008152508460000151611ca8565b158015611a6f5750611a6d6040518060400160405280600881526020017f7472616e736665720000000000000000000000000000000000000000000000008152508460000151611ca8565b155b8015611abb5750611ab96040518060400160405280600881526020017f77697468647261770000000000000000000000000000000000000000000000008152508460000151611ca8565b155b611ac457600080fd5b6000611acf84610edb565b9050611adc848285611d65565b611ae557600080fd5b836060015173ffffffffffffffffffffffffffffffffffffffff16638f4ffcb185604001518660c001518760a0015188600001516040518563ffffffff1660e01b8152600401611b389493929190612b93565b600060405180830381600087803b158015611b5257600080fd5b505af1158015611b66573d6000803e3d6000fd5b50505050600191505092915050565b60008060008473ffffffffffffffffffffffffffffffffffffffff1673ffffffffffffffffffffffffffffffffffffffff16815260200190815260200160002060008373ffffffffffffffffffffffffffffffffffffffff1673ffffffffffffffffffffffffffffffffffffffff16815260200190815260200160002054905092915050565b6000611c406040518060400160405280600781526020017f617070726f7665000000000000000000000000000000000000000000000000008152508460000151611ca8565b611c4957600080fd5b6000611c5484610edb565b9050611c61848285611d65565b611c6a57600080fd5b600191505092915050565b600082821115611c8157fe5b818303905092915050565b600080828401905083811015611c9e57fe5b8091505092915050565b60008151835114611cbc5760009050611d5f565b60008090505b8351811015611d5957828181518110611cd757fe5b602001015160f81c60f81b7effffffffffffffffffffffffffffffffffffffffffffffffffffffffffffff1916848281518110611d1057fe5b602001015160f81c60f81b7effffffffffffffffffffffffffffffffffffffffffffffffffffffffffffff191614611d4c576000915050611d5f565b8080600101915050611cc2565b50600190505b92915050565b60008073ffffffffffffffffffffffffffffffffffffffff16846020015173ffffffffffffffffffffffffffffffffffffffff161480611dea5750611dad84602001516122d7565b158015611de95750836020015173ffffffffffffffffffffffffffffffffffffffff163373ffffffffffffffffffffffffffffffffffffffff16145b5b80611eb85750611dfd84602001516122d7565b8015611eb75750836020015173ffffffffffffffffffffffffffffffffffffffff16638c0636866040518163ffffffff1660e01b8152600401602060405180830381600087803b158015611e5057600080fd5b505af1158015611e64573d6000803e3d6000fd5b505050506040513d601f19601f82011682018060405250611e88919081019061251b565b73ffffffffffffffffffffffffffffffffffffffff163373ffffffffffffffffffffffffffffffffffffffff16145b5b611ec157600080fd5b6000611ecd848461220d565b90508073ffffffffffffffffffffffffffffffffffffffff16856040015173ffffffffffffffffffffffffffffffffffffffff1614611f0b57600080fd5b8461012001514310611f1c57600080fd5b6000600260008681526020019081526020016000205490506001600260008781526020019081526020016000208190555060008114611f5a57600080fd5b856101000151600160008860e0015173ffffffffffffffffffffffffffffffffffffffff1673ffffffffffffffffffffffffffffffffffffffff1681526020019081526020016000206000886040015173ffffffffffffffffffffffffffffffffffffffff1673ffffffffffffffffffffffffffffffffffffffff16815260200190815260200160002060003373ffffffffffffffffffffffffffffffffffffffff1673ffffffffffffffffffffffffffffffffffffffff168152602001908152602001600020819055508560e0015173ffffffffffffffffffffffffffffffffffffffff16866040015173ffffffffffffffffffffffffffffffffffffffff167fa0175360a15bca328baf7ea85c7b784d58b222a50d0ce760b10dba336d226a6133896101000151604051612091929190612a80565b60405180910390a36120b28660400151338860e00151896101000151610ac3565b6120bb57600080fd5b8560c00151600160008860a0015173ffffffffffffffffffffffffffffffffffffffff1673ffffffffffffffffffffffffffffffffffffffff1681526020019081526020016000206000886040015173ffffffffffffffffffffffffffffffffffffffff1673ffffffffffffffffffffffffffffffffffffffff1681526020019081526020016000206000886060015173ffffffffffffffffffffffffffffffffffffffff1673ffffffffffffffffffffffffffffffffffffffff168152602001908152602001600020819055508560a0015173ffffffffffffffffffffffffffffffffffffffff16866040015173ffffffffffffffffffffffffffffffffffffffff167fa0175360a15bca328baf7ea85c7b784d58b222a50d0ce760b10dba336d226a6188606001518960c001516040516121f8929190612b6a565b60405180910390a36001925050509392505050565b600080600080604185511461222857600093505050506122d1565b6020850151925060408501519150606085015160001a9050601b8160ff16101561225357601b810190505b601b8160ff161415801561226b5750601c8160ff1614155b1561227c57600093505050506122d1565b6001868285856040516000815260200160405260405161229f9493929190612ccf565b6020604051602081039080840390855afa1580156122c1573d6000803e3d6000fd5b5050506020604051035193505050505b92915050565b600080823b905060008111915050919050565b6000813590506122f981612ecd565b92915050565b60008151905061230e81612ecd565b92915050565b60008151905061232381612ee4565b92915050565b60008135905061233881612efb565b92915050565b600082601f83011261234f57600080fd5b813561236261235d82612d5c565b612d2f565b9150808252602083016020830185838301111561237e57600080fd5b612389838284612e70565b50505092915050565b600082601f8301126123a357600080fd5b81356123b66123b182612d88565b612d2f565b915080825260208301602083018583830111156123d257600080fd5b6123dd838284612e70565b50505092915050565b600061016082840312156123f957600080fd5b612404610160612d2f565b9050600082013567ffffffffffffffff81111561242057600080fd5b61242c84828501612392565b6000830152506020612440848285016122ea565b6020830152506040612454848285016122ea565b6040830152506060612468848285016122ea565b606083015250608061247c848285016122ea565b60808301525060a0612490848285016122ea565b60a08301525060c06124a484828501612506565b60c08301525060e06124b8848285016122ea565b60e0830152506101006124cd84828501612506565b610100830152506101206124e384828501612506565b610120830152506101406124f984828501612506565b6101408301525092915050565b60008135905061251581612f12565b92915050565b60006020828403121561252d57600080fd5b600061253b848285016122ff565b91505092915050565b6000806040838503121561255757600080fd5b6000612565858286016122ea565b9250506020612576858286016122ea565b9150509250929050565b60008060006060848603121561259557600080fd5b60006125a3868287016122ea565b93505060206125b4868287016122ea565b92505060406125c5868287016122ea565b9150509250925092565b600080600080608085870312156125e557600080fd5b60006125f3878288016122ea565b9450506020612604878288016122ea565b9350506040612615878288016122ea565b925050606061262687828801612506565b91505092959194509250565b60008060006060848603121561264757600080fd5b6000612655868287016122ea565b9350506020612666868287016122ea565b925050604061267786828701612506565b9150509250925092565b6000806040838503121561269457600080fd5b60006126a2858286016122ea565b92505060206126b385828601612506565b9150509250929050565b600080600080608085870312156126d357600080fd5b60006126e1878288016122ea565b94505060206126f287828801612506565b9350506040612703878288016122ea565b925050606085013567ffffffffffffffff81111561272057600080fd5b61272c8782880161233e565b91505092959194509250565b60006020828403121561274a57600080fd5b600061275884828501612314565b91505092915050565b60006020828403121561277357600080fd5b600061278184828501612329565b91505092915050565b60006020828403121561279c57600080fd5b600082013567ffffffffffffffff8111156127b657600080fd5b6127c2848285016123e6565b91505092915050565b600080604083850312156127de57600080fd5b600083013567ffffffffffffffff8111156127f857600080fd5b612804858286016123e6565b925050602083013567ffffffffffffffff81111561282157600080fd5b61282d8582860161233e565b9150509250929050565b61284081612e3a565b82525050565b61284f81612ddb565b82525050565b61285e81612ded565b82525050565b61286d81612df9565b82525050565b61288461287f82612df9565b612eb2565b82525050565b600061289582612db4565b61289f8185612dbf565b93506128af818560208601612e7f565b6128b881612ebc565b840191505092915050565b60006128d0600283612dd0565b91507f19010000000000000000000000000000000000000000000000000000000000006000830152600282019050919050565b600061291060cd83612dd0565b91507f4c6176615061636b657428737472696e67206d6574686f644e616d652c61646460008301527f726573732072656c6179417574686f726974792c616464726573732066726f6d60208301527f2c6164647265737320746f2c616464726573732077616c6c65742c616464726560408301527f737320746f6b656e2c75696e7432353620746f6b656e732c616464726573732060608301527f72656c61796572526577617264546f6b656e2c75696e743235362072656c617960808301527f6572526577617264546f6b656e732c75696e7432353620657870697265732c7560a08301527f696e74323536206e6f6e6365290000000000000000000000000000000000000060c083015260cd82019050919050565b612a3081612e23565b82525050565b612a3f81612e2d565b82525050565b6000612a50826128c3565b9150612a5c8284612873565b60208201915081905092915050565b6000612a7682612903565b9150819050919050565b6000604082019050612a956000830185612837565b612aa26020830184612a27565b9392505050565b6000606082019050612abe6000830186612846565b612acb6020830185612837565b612ad86040830184612a27565b949350505050565b6000608082019050612af56000830187612846565b612b026020830186612837565b612b0f6040830185612a27565b612b1c6060830184612a27565b95945050505050565b6000608082019050612b3a6000830187612846565b612b476020830186612846565b612b546040830185612a27565b612b616060830184612a27565b95945050505050565b6000604082019050612b7f6000830185612846565b612b8c6020830184612a27565b9392505050565b6000608082019050612ba86000830187612846565b612bb56020830186612a27565b612bc26040830185612846565b8181036060830152612bd4818461288a565b905095945050505050565b6000602082019050612bf46000830184612855565b92915050565b6000602082019050612c0f6000830184612864565b92915050565b600061018082019050612c2b600083018f612864565b612c38602083018e612864565b612c45604083018d612846565b612c52606083018c612846565b612c5f608083018b612846565b612c6c60a083018a612846565b612c7960c0830189612846565b612c8660e0830188612a27565b612c94610100830187612846565b612ca2610120830186612a27565b612cb0610140830185612a27565b612cbe610160830184612a27565b9d9c50505050505050505050505050565b6000608082019050612ce46000830187612864565b612cf16020830186612a36565b612cfe6040830185612864565b612d0b6060830184612864565b95945050505050565b6000602082019050612d296000830184612a27565b92915050565b6000604051905081810181811067ffffffffffffffff82111715612d5257600080fd5b8060405250919050565b600067ffffffffffffffff821115612d7357600080fd5b601f19601f8301169050602081019050919050565b600067ffffffffffffffff821115612d9f57600080fd5b601f19601f8301169050602081019050919050565b600081519050919050565b600082825260208201905092915050565b600081905092915050565b6000612de682612e03565b9050919050565b60008115159050919050565b6000819050919050565b600073ffffffffffffffffffffffffffffffffffffffff82169050919050565b6000819050919050565b600060ff82169050919050565b6000612e4582612e4c565b9050919050565b6000612e5782612e5e565b9050919050565b6000612e6982612e03565b9050919050565b82818337600083830152505050565b60005b83811015612e9d578082015181840152602081019050612e82565b83811115612eac576000848401525b50505050565b6000819050919050565b6000601f19601f8301169050919050565b612ed681612ddb565b8114612ee157600080fd5b50565b612eed81612ded565b8114612ef857600080fd5b50565b612f0481612df9565b8114612f0f57600080fd5b50565b612f1b81612e23565b8114612f2657600080fd5b5056fea365627a7a7231582043b6cc356149193725365f84dbf33b21989754e643965e23a3ffc26868793ca96c6578706572696d656e74616cf564736f6c63430005100040",
  "source": "pragma solidity ^0.5.0;\n\n\npragma experimental ABIEncoderV2;\n\n/**\n * @title SafeMath\n * @dev Math operations with safety checks that throw on error\n */\nlibrary SafeMath {\n\n  /**\n  * @dev Multiplies two numbers, throws on overflow.\n  */\n  function mul(uint256 a, uint256 b) internal pure returns (uint256) {\n    if (a == 0) {\n      return 0;\n    }\n    uint256 c = a * b;\n    assert(c / a == b);\n    return c;\n  }\n\n  /**\n  * @dev Integer division of two numbers, truncating the quotient.\n  */\n  function div(uint256 a, uint256 b) internal pure returns (uint256) {\n    // assert(b > 0); // Solidity automatically throws when dividing by 0\n    uint256 c = a / b;\n    // assert(a == b * c + a % b); // There is no case in which this doesn't hold\n    return c;\n  }\n\n  /**\n  * @dev Substracts two numbers, throws on overflow (i.e. if subtrahend is greater than minuend).\n  */\n  function sub(uint256 a, uint256 b) internal pure returns (uint256) {\n    assert(b <= a);\n    return a - b;\n  }\n\n  /**\n  * @dev Adds two numbers, throws on overflow.\n  */\n  function add(uint256 a, uint256 b) internal pure returns (uint256) {\n    uint256 c = a + b;\n    assert(c >= a);\n    return c;\n  }\n}\n\n\ncontract ECRecovery {\n\n  /**\n   * @dev Recover signer address from a message by using their signature\n   * @param hash bytes32 message, the hash is the signed message. What is recovered is the signer address.\n   * @param sig bytes signature, the signature is generated using web3.eth.sign()\n   */\n  function recover(bytes32 hash, bytes memory sig) internal  pure returns (address) {\n    bytes32 r;\n    bytes32 s;\n    uint8 v;\n\n    //Check the signature length\n    if (sig.length != 65) {\n      return (address(0));\n    }\n\n    // Divide the signature in r, s and v variables\n    assembly {\n      r := mload(add(sig, 32))\n      s := mload(add(sig, 64))\n      v := byte(0, mload(add(sig, 96)))\n    }\n\n    // Version of signature should be 27 or 28, but 0 and 1 are also possible versions\n    if (v < 27) {\n      v += 27;\n    }\n\n    // If the version is correct return the signer address\n    if (v != 27 && v != 28) {\n      return (address(0));\n    } else {\n      return ecrecover(hash, v, r, s);\n    }\n  }\n\n}\n\n\n\n/*\n\nThis is a token wallet contract\n\nStore your tokens in this contract to give them super powers\n\nTokens can be spent from the contract with only an ecSignature from the owner - onchain approve is not needed\n\n\n*/\n\ncontract ERC20Interface {\n    function totalSupply() public view returns (uint);\n    function balanceOf(address tokenOwner) public view returns (uint balance);\n    function allowance(address tokenOwner, address spender) public view returns (uint remaining);\n    function transfer(address to, uint tokens) public returns (bool success);\n    function approve(address spender, uint tokens) public returns (bool success);\n    function transferFrom(address from, address to, uint tokens) public returns (bool success);\n\n    event Transfer(address indexed from, address indexed to, uint tokens);\n    event Approval(address indexed tokenOwner, address indexed spender, uint tokens);\n}\ncontract ERC918Interface {\n  function totalSupply() public view returns (uint);\n  function getMiningDifficulty() public view returns (uint);\n  function getMiningTarget() public view returns (uint);\n  function getMiningReward() public view returns (uint);\n  function balanceOf(address tokenOwner) public view returns (uint balance);\n\n  function mint(uint256 nonce, bytes32 challenge_digest) public returns (bool success);\n\n  event Mint(address indexed from, uint reward_amount, uint epochCount, bytes32 newChallengeNumber);\n\n}\n\n/*contract MiningKingInterface {\n    function getMiningKing() public returns (address);\n    function transferKing(address newKing) public;\n    function mint(uint256 nonce, bytes32 challenge_digest) returns (bool);\n\n    event TransferKing(address from, address to);\n}*/\n\ncontract RelayAuthorityInterface {\n    function getRelayAuthority() public returns (address);\n}\n\ncontract ApproveAndCallFallBack {\n    function receiveApproval(address from, uint256 tokens, address token, bytes memory data) public;\n}\n\n\n\n\n\n\ncontract LavaWallet is ECRecovery{\n\n  using SafeMath for uint;\n\n  // balances[tokenContractAddress][EthereumAccountAddress] = 0\n   mapping(address => mapping (address => uint256)) balances;\n\n   //token => owner => spender : amount\n   mapping(address => mapping (address => mapping (address => uint256))) allowed;\n\n   //mapping(address => uint256) depositedTokens;\n\n   mapping(bytes32 => uint256) burnedSignatures;\n\n\n  event Deposit(address token, address user, uint amount, uint balance);\n  event Withdraw(address token, address user, uint amount, uint balance);\n  event Transfer(address indexed from, address indexed to,address token, uint tokens);\n  event Approval(address indexed tokenOwner, address indexed spender,address token, uint tokens);\n\n\n\n  /*struct EIP712Domain {\n      string  name;\n      address verifyingContract;\n  }*/\n\n\n  struct LavaPacket {\n    string methodName;\n    address relayAuthority; //either a contract or an account\n    address from;\n    address to;\n    address wallet;  //this contract address\n    address token;\n    uint256 tokens;\n    address relayerRewardToken;\n    uint256 relayerRewardTokens;\n    uint256 expires;\n    uint256 nonce;\n  }\n\n\n  /*\n      MUST update these if architecture changes !!\n      MAKE SURE there are no spaces !\n  */\n//  bytes32 constant EIP712DOMAIN_TYPEHASH = keccak256(\n//      \"EIP712Domain(string name,address verifyingContract)\"\n//  );\n\n  bytes32 constant LAVAPACKET_TYPEHASH = keccak256(\n      \"LavaPacket(string methodName,address relayAuthority,address from,address to,address wallet,address token,uint256 tokens,address relayerRewardToken,uint256 relayerRewardTokens,uint256 expires,uint256 nonce)\"\n  );\n\n\n\n//  function getDomainTypehash()   pure returns (bytes32) {\n//      return EIP712DOMAIN_TYPEHASH;\n//  }\n\n    function getLavaPacketTypehash() public view returns (bytes32) {\n      return LAVAPACKET_TYPEHASH;\n  }\n\n\n\n\n/*  function getDomainHash(EIP712Domain eip712Domain)  pure returns (bytes32) {\n        return keccak256(abi.encode(\n            EIP712DOMAIN_TYPEHASH,\n            keccak256(bytes(eip712Domain.name)),\n            eip712Domain.verifyingContract\n        ));\n    }*/\n\n    function getLavaPacketHash(LavaPacket memory packet) public view returns (bytes32) {\n        return keccak256(abi.encode(\n            LAVAPACKET_TYPEHASH,\n            keccak256(bytes(packet.methodName)),\n            packet.relayAuthority,\n            packet.from,\n            packet.to,\n            packet.wallet,\n            packet.token,\n            packet.tokens,\n            packet.relayerRewardToken,\n            packet.relayerRewardTokens,\n            packet.expires,\n            packet.nonce\n        //    keccak256(bytes(packet.callData))\n        ));\n    }\n\n\n\n  constructor(  ) public {\n\n\n  }\n\n\n  //do not allow ether to enter\n  function() external    payable {\n      revert();\n  }\n\n\n   //Remember you need pre-approval for this - nice with ApproveAndCall\n  function depositTokens(address from, address token, uint256 tokens ) public returns (bool success)\n  {\n      //we already have approval so lets do a transferFrom - transfer the tokens into this contract\n\n      require(ERC20Interface(token).transferFrom(from, address(this), tokens));\n\n      balances[token][from] = balances[token][from].add(tokens);\n  //    depositedTokens[token] = depositedTokens[token].add(tokens);\n\n      emit Deposit(token, from, tokens, balances[token][from]);\n\n      return true;\n  }\n\n\n  //No approve needed, only from msg.sender\n  function withdrawTokens(address token, uint256 tokens) public returns (bool success){\n     balances[token][msg.sender] = balances[token][msg.sender].sub(tokens);\n\n     require(ERC20Interface(token).transfer(msg.sender, tokens));\n\n\n     emit Withdraw(token, msg.sender, tokens, balances[token][msg.sender]);\n     return true;\n  }\n\n  //Requires approval so it can be public\n  function withdrawTokensFrom( address from, address to,address token,  uint tokens) public returns (bool success) {\n\n       allowed[token][from][to] = allowed[token][from][to].sub(tokens);\n       balances[token][from] = balances[token][from].sub(tokens);\n\n      require(ERC20Interface(token).transfer(to, tokens));\n\n\n      emit Withdraw(token, from, tokens, balances[token][from]);\n      return true;\n  }\n\n\n  function balanceOf(address token,address user) public view returns (uint) {\n       return balances[token][user];\n   }\n\n\n\n   function allowance(address token, address tokenOwner, address spender) public view returns (uint remaining) {\n\n       return allowed[token][tokenOwner][spender];\n\n   }\n\n\n\n\n  //Can also be used to remove approval by using a 'tokens' value of 0.  P.S. it makes no sense to do an ApproveTokensFrom\n  function approveTokens(address spender, address token, uint tokens) public returns (bool success) {\n      allowed[token][msg.sender][spender] = tokens;\n      emit Approval(msg.sender, token, spender, tokens);\n      return true;\n  }\n\n  ///transfer tokens within the lava balances\n  //No approve needed, only from msg.sender\n   function transferTokens(address to, address token, uint tokens) public returns (bool success) {\n        balances[token][msg.sender] = balances[token][msg.sender].sub(tokens);\n        balances[token][to] = balances[token][to].add(tokens);\n        emit Transfer(msg.sender, token, to, tokens);\n        return true;\n    }\n\n\n    ///transfer tokens within the lava balances\n    //Can be public because it requires approval\n   function transferTokensFrom( address from, address to,address token,  uint tokens) public returns (bool success) {\n       balances[token][from] = balances[token][from].sub(tokens);\n       allowed[token][from][to] = allowed[token][from][to].sub(tokens);\n       balances[token][to] = balances[token][to].add(tokens);\n       emit Transfer(token, from, to, tokens);\n       return true;\n   }\n\n\n\n  // function getLavaPacket(address from,)\n\n   //This replaces getLavaTypedDataHash .. how to handle methodName?\n\n   function getLavaTypedDataHash(LavaPacket memory packet) public view returns (bytes32) {\n\n\n          // Note: we need to use `encodePacked` here instead of `encode`.\n          bytes32 digest = keccak256(abi.encodePacked(\n              \"\\x19\\x01\",\n            //  DOMAIN_SEPARATOR,\n              getLavaPacketHash(packet)\n          ));\n          return digest;\n      }\n\n\n\n   //Nonce is the same thing as a 'check number'\n   //EIP 712\n/*   function getLavaTypedDataHash(bytes methodName, LavaPacket packet ) public view returns (bytes32)\n   {\n\n\n         bytes32 hardcodedSchemaHash = 0x8fd4f9177556bbc74d0710c8bdda543afd18cc84d92d64b5620d5f1881dceb37; //with methodName\n\n\n        bytes32 typedDataHash = sha3(\n            hardcodedSchemaHash,\n            sha3(methodName,packet.from,packet.to,this,packet.token,packet.tokens,packet.relayerReward,packet.expires,packet.nonce)\n          );\n\n        return typedDataHash;\n   }*/\n\n\n\n\n\n\n\n\n   function _tokenApprovalWithSignature(LavaPacket memory packet, bytes32 sigHash, bytes memory signature) internal returns (bool success)\n   {\n\n       /*\n        Always allow relaying if the specified relayAuthority is 0.\n        If the authority address is not a contract, allow it to relay\n        If the authority address is a contract, allow its defined 'getAuthority()' delegate to relay\n       */\n\n       require( packet.relayAuthority == address(0x0)\n         || (!addressContainsContract(packet.relayAuthority) && msg.sender == packet.relayAuthority)\n         || (addressContainsContract(packet.relayAuthority) && msg.sender == RelayAuthorityInterface(packet.relayAuthority).getRelayAuthority())  );\n\n\n\n      address recoveredSignatureSigner = recover(sigHash,signature);\n\n\n       //make sure the signer is the depositor of the tokens\n       require(packet.from == recoveredSignatureSigner);\n\n\n       //make sure the signature has not expired\n       require(block.number < packet.expires);\n\n       uint burnedSignature = burnedSignatures[sigHash];\n       burnedSignatures[sigHash] = 0x1; //spent\n       require(burnedSignature == 0x0 );\n\n       //approve the relayer reward\n       allowed[packet.relayerRewardToken][packet.from][msg.sender] = packet.relayerRewardTokens;\n       emit Approval(packet.from, packet.relayerRewardToken, msg.sender, packet.relayerRewardTokens);\n\n       //transferRelayerReward\n       require(transferTokensFrom(packet.from, msg.sender, packet.relayerRewardToken, packet.relayerRewardTokens));\n\n       //approve transfer of tokens\n       allowed[packet.token][packet.from][packet.to] = packet.tokens;\n       emit Approval(packet.from, packet.token, packet.to, packet.tokens);\n\n\n       return true;\n   }\n\n\n\n   function approveTokensWithSignature(LavaPacket memory packet, bytes memory signature) public returns (bool success)\n   {\n       require(bytesEqual('approve',bytes(packet.methodName)));\n\n       bytes32 sigHash = getLavaTypedDataHash(packet);\n\n       require(_tokenApprovalWithSignature(packet,sigHash,signature));\n\n\n       return true;\n   }\n\n\n   //the tokens remain in lava wallet\n  function transferTokensWithSignature(LavaPacket memory packet, bytes memory signature) public returns (bool success)\n  {\n\n      require(bytesEqual('transfer',bytes(packet.methodName)));\n\n      //check to make sure that signature == ecrecover signature\n      bytes32 sigHash = getLavaTypedDataHash(packet);\n\n      require(_tokenApprovalWithSignature(packet,sigHash,signature));\n\n      //it can be requested that fewer tokens be sent that were approved -- the whole approval will be invalidated though\n      require(transferTokensFrom( packet.from, packet.to, packet.token, packet.tokens));\n\n\n      return true;\n\n  }\n\n\n  //the tokens remain in lava wallet\n function withdrawTokensWithSignature(LavaPacket memory packet, bytes memory signature) public returns (bool success)\n {\n     require(bytesEqual('withdraw',bytes(packet.methodName)));\n\n     //check to make sure that signature == ecrecover signature\n     bytes32 sigHash = getLavaTypedDataHash(packet);\n\n     require(_tokenApprovalWithSignature(packet,sigHash,signature));\n\n     //it can be requested that fewer tokens be sent that were approved -- the whole approval will be invalidated though\n     require(withdrawTokensFrom( packet.from, packet.to, packet.token, packet.tokens));\n\n\n     return true;\n\n }\n\n\n\n\n\n     function burnSignature( LavaPacket memory packet,  bytes memory signature) public returns (bool success)\n     {\n\n\n        bytes32 sigHash = getLavaTypedDataHash( packet);\n\n         address recoveredSignatureSigner = recover(sigHash,signature);\n\n         //make sure the invalidator is the signer\n         require(recoveredSignatureSigner == packet.from);\n\n         //only the original packet owner can burn signature, not a relay\n         require(packet.from == msg.sender);\n\n         //make sure this signature has never been used\n         uint burnedSignature = burnedSignatures[sigHash];\n         burnedSignatures[sigHash] = 0x2; //invalidated\n         require(burnedSignature == 0x0);\n\n         return true;\n     }\n\n\n     function signatureBurnStatus(bytes32 digest) public view returns (uint)\n     {\n       return (burnedSignatures[digest]);\n     }\n\n\n\n\n       /*\n         Receive approval to spend tokens and perform any action all in one transaction\n       */\n     function receiveApproval(address from, uint256 tokens, address token, bytes memory data) public returns (bool success) {\n\n\n       return depositTokens(from, token, tokens );\n\n     }\n\n     /*\n      Approve lava tokens for a smart contract and call the contracts receiveApproval method all in one fell swoop\n\n\n      */\n     function approveAndCall( LavaPacket memory packet, bytes memory signature ) public returns (bool success)   {\n\n      // address from, address to, address token, uint256 tokens, uint256 relayerReward,  uint256 expires, uint256 nonce\n\n\n      require(!bytesEqual('approve',bytes(packet.methodName))\n      && !bytesEqual('transfer',bytes(packet.methodName))\n      && !bytesEqual('withdraw',bytes(packet.methodName)) );\n\n        bytes32 sigHash = getLavaTypedDataHash( packet);\n\n\n        require(_tokenApprovalWithSignature(packet,sigHash,signature));\n\n        ApproveAndCallFallBack(packet.to).receiveApproval(packet.from, packet.tokens, packet.token, bytes(packet.methodName));\n\n        return true;\n     }\n\n\n\n     function addressContainsContract(address _to) view internal returns (bool)\n     {\n       uint codeLength;\n\n        assembly {\n            // Retrieve the size of the code on target address, this needs assembly .\n            codeLength := extcodesize(_to)\n        }\n\n         return (codeLength>0);\n     }\n\n\n     function bytesEqual(bytes memory b1,bytes memory b2) pure internal returns (bool)\n        {\n          if(b1.length != b2.length) return false;\n\n          for (uint i=0; i<b1.length; i++) {\n            if(b1[i] != b2[i]) return false;\n          }\n\n          return true;\n        }\n\n\n}\n",
  "sourcePath": "/home/andy/dev/lava-token/contracts/LavaWallet.sol",
  "compiler": {
    "name": "solc",
    "version": "0.5.16+commit.9c3226ce.Emscripten.clang"
  },
  "schemaVersion": "3.3.3",
  "updatedAt": "2021-01-23T18:06:47.281Z",
  "devdoc": {
    "methods": {}
  },
  "userdoc": {
    "methods": {
      "transferTokens(address,address,uint256)": {
        "notice": "transfer tokens within the lava balances"
      },
      "transferTokensFrom(address,address,address,uint256)": {
        "notice": "transfer tokens within the lava balances"
      }
    }
  }
}