{
  "contractName": "NTTClaimMM",
  "abi": [
    {
      "inputs": [
        {
          "internalType": "address",
          "name": "nttAddress",
          "type": "address"
        }
      ],
      "payable": false,
      "stateMutability": "nonpayable",
      "type": "constructor"
    },
    {
      "payable": true,
      "stateMutability": "payable",
      "type": "fallback"
    },
    {
      "constant": false,
      "inputs": [
        {
          "internalType": "address",
          "name": "from",
          "type": "address"
        },
        {
          "internalType": "uint256",
          "name": "tokens",
          "type": "uint256"
        },
        {
          "internalType": "address",
          "name": "token",
          "type": "address"
        },
        {
          "internalType": "bytes",
          "name": "data",
          "type": "bytes"
        }
      ],
      "name": "receiveApproval",
      "outputs": [
        {
          "internalType": "bool",
          "name": "success",
          "type": "bool"
        }
      ],
      "payable": false,
      "stateMutability": "nonpayable",
      "type": "function"
    }
  ],
  "bytecode": "0x608060405234801561001057600080fd5b506040516105073803806105078339818101604052602081101561003357600080fd5b8101908080519060200190929190505050806000806101000a81548173ffffffffffffffffffffffffffffffffffffffff021916908373ffffffffffffffffffffffffffffffffffffffff16021790555050610473806100946000396000f3fe60806040526004361061001e5760003560e01c80638f4ffcb114610023575b600080fd5b34801561002f57600080fd5b506101336004803603608081101561004657600080fd5b81019080803573ffffffffffffffffffffffffffffffffffffffff16906020019092919080359060200190929190803573ffffffffffffffffffffffffffffffffffffffff169060200190929190803590602001906401000000008111156100ad57600080fd5b8201836020820111156100bf57600080fd5b803590602001918460018302840111640100000000831117156100e157600080fd5b91908080601f016020809104026020016040519081016040528093929190818152602001838380828437600081840152601f19601f82011690508083019250505050505050919291929050505061014d565b604051808215151515815260200191505060405180910390f35b6000606082905061015e8682610174565b61016757600080fd5b6001915050949350505050565b600080826040516020018082805190602001908083835b602083106101ae578051825260208201915060208101905060208303925061018b565b6001836020036101000a0380198251168184511680821785525050505050509050019150506040516020818303038152906040528051906020012060001c90506000809054906101000a900473ffffffffffffffffffffffffffffffffffffffff1673ffffffffffffffffffffffffffffffffffffffff1663931b338530856040518363ffffffff1660e01b8152600401808373ffffffffffffffffffffffffffffffffffffffff1673ffffffffffffffffffffffffffffffffffffffff16815260200180602001828103825283818151815260200191508051906020019080838360005b838110156102ae578082015181840152602081019050610293565b50505050905090810190601f1680156102db5780820380516001836020036101000a031916815260200191505b509350505050602060405180830381600087803b1580156102fb57600080fd5b505af115801561030f573d6000803e3d6000fd5b505050506040513d602081101561032557600080fd5b810190808051906020019092919050505061033f57600080fd5b6000809054906101000a900473ffffffffffffffffffffffffffffffffffffffff1673ffffffffffffffffffffffffffffffffffffffff166323b872dd3086846040518463ffffffff1660e01b8152600401808473ffffffffffffffffffffffffffffffffffffffff1673ffffffffffffffffffffffffffffffffffffffff1681526020018373ffffffffffffffffffffffffffffffffffffffff1673ffffffffffffffffffffffffffffffffffffffff1681526020018281526020019350505050600060405180830381600087803b15801561041b57600080fd5b505af115801561042f573d6000803e3d6000fd5b5050505060019150509291505056fea265627a7a723158200775a2468aaf15f3de265ead844307ea9d7022c0eb80077b840c3724cce53c5764736f6c63430005100032",
  "source": "pragma solidity ^0.5.0;\n\n\n\n/**------------------------------------\n\nNTT Claim Middleman\n\nThis is a Lava Middleman contract that claims a new Nametag Token\n\n------------------------------------*/\n\n\n/*\ncontract ERC20Interface {\n    function totalSupply() public view returns (uint);\n    function balanceOf(address tokenOwner) public view returns (uint balance);\n    function allowance(address tokenOwner, address spender) public view returns (uint remaining);\n    function transfer(address to, uint tokens) public returns (bool success);\n    function approve(address spender, uint tokens) public returns (bool success);\n    function transferFrom(address from, address to, uint tokens) public returns (bool success);\n\n    event Transfer(address indexed from, address indexed to, uint tokens);\n    event Approval(address indexed tokenOwner, address indexed spender, uint tokens);\n}\n*/\n\ncontract ERC721Interface {\n\n  function balanceOf(address _owner) external view returns (uint256);\n  function ownerOf(uint256 _tokenId) external view returns (address);\n\n  function transferFrom(address _from, address _to, uint256 _tokenId) external payable;\n  function approve(address _approved, uint256 _tokenId) external payable;\n  function setApprovalForAll(address _operator, bool _approved) external;\n  function getApproved(uint256 _tokenId) external view returns (address);\n  function isApprovedForAll(address _owner, address _operator) external view returns (bool);\n\n  event Transfer(address indexed _from, address indexed _to, uint256 indexed _tokenId);\n  event Approval(address indexed _owner, address indexed _approved, uint256 indexed _tokenId);\n  event ApprovalForAll(address indexed _owner, address indexed _operator, bool _approved);\n\n}\n\ncontract NametagInterface {\n    function claimToken( address to,  string memory name  ) public  returns (bool);\n    function reserveToken( address to, uint256 tokenId ) public  returns (bool);\n}\n\n\ncontract ApproveAndCallFallBack {\n    function receiveApproval(address from, uint256 tokens, address token, bytes memory data) public;\n}\n\n\ncontract NTTClaimMM{\n\n\n  address nametagTokenAddress;\n\n    constructor(address nttAddress ) public {\n      nametagTokenAddress = nttAddress;\n    }\n\n    /**\n    * Do not allow ETH to enter\n    */\n     function() external payable\n     {\n         revert();\n     }\n\n\n    function _claimNametagToken(address from, string memory name) internal returns (bool success) {\n\n          uint256 tokenId = (uint256) (keccak256(abi.encodePacked( name )));\n\n          //claim the token for this contract\n          require(NametagInterface(nametagTokenAddress).claimToken(address(this), name ));\n\n          //send the token to the owner\n          ERC721Interface(nametagTokenAddress).transferFrom(address(this), from, tokenId)  ;\n\n         return true;\n     }\n\n       /*\n         Receive approval from ApproveAndCall() to claim a nametag token.\n\n       */\n     function receiveApproval(address from, uint256 tokens, address token, bytes memory data) public returns (bool success) {\n\n        string memory name = string(data);\n\n        require(_claimNametagToken( from, name ));\n\n        return true;\n\n     }\n\n\n\n}\n",
  "sourcePath": "/home/andy/dev/lava-token/contracts/NTTClaimMM.sol",
  "compiler": {
    "name": "solc",
    "version": "0.5.16+commit.9c3226ce.Emscripten.clang"
  },
  "schemaVersion": "3.3.3",
  "updatedAt": "2021-01-23T18:06:47.297Z",
  "devdoc": {
    "methods": {}
  },
  "userdoc": {
    "methods": {}
  }
}