{
  "contractName": "PurchaseOrderManager",
  "abi": [
    {
      "inputs": [],
      "payable": false,
      "stateMutability": "nonpayable",
      "type": "constructor"
    },
    {
      "payable": true,
      "stateMutability": "payable",
      "type": "fallback"
    },
    {
      "constant": true,
      "inputs": [
        {
          "internalType": "bytes32",
          "name": "orderHash",
          "type": "bytes32"
        }
      ],
      "name": "getPurchaseOrderStatus",
      "outputs": [
        {
          "internalType": "bool",
          "name": "success",
          "type": "bool"
        }
      ],
      "payable": false,
      "stateMutability": "view",
      "type": "function"
    },
    {
      "constant": false,
      "inputs": [
        {
          "internalType": "address",
          "name": "from",
          "type": "address"
        },
        {
          "internalType": "uint256",
          "name": "tokens",
          "type": "uint256"
        },
        {
          "internalType": "address",
          "name": "token",
          "type": "address"
        },
        {
          "internalType": "bytes",
          "name": "data",
          "type": "bytes"
        }
      ],
      "name": "receiveApproval",
      "outputs": [
        {
          "internalType": "bool",
          "name": "success",
          "type": "bool"
        }
      ],
      "payable": false,
      "stateMutability": "nonpayable",
      "type": "function"
    }
  ],
  "bytecode": "0x608060405234801561001057600080fd5b5073b6ed7644c69416d67b522e20bc294a9a9b405b316000806101000a81548173ffffffffffffffffffffffffffffffffffffffff021916908373ffffffffffffffffffffffffffffffffffffffff16021790555061052c806100746000396000f3fe6080604052600436106100295760003560e01c80638f4ffcb11461002e5780639b7e886214610158575b600080fd5b34801561003a57600080fd5b5061013e6004803603608081101561005157600080fd5b81019080803573ffffffffffffffffffffffffffffffffffffffff16906020019092919080359060200190929190803573ffffffffffffffffffffffffffffffffffffffff169060200190929190803590602001906401000000008111156100b857600080fd5b8201836020820111156100ca57600080fd5b803590602001918460018302840111640100000000831117156100ec57600080fd5b91908080601f016020809104026020016040519081016040528093929190818152602001838380828437600081840152601f19601f8201169050808301925050505050505091929192905050506101ab565b604051808215151515815260200191505060405180910390f35b34801561016457600080fd5b506101916004803603602081101561017b57600080fd5b810190808035906020019092919050505061025a565b604051808215151515815260200191505060405180910390f35b60008060009054906101000a900473ffffffffffffffffffffffffffffffffffffffff1673ffffffffffffffffffffffffffffffffffffffff168373ffffffffffffffffffffffffffffffffffffffff161461020657600080fd5b60008060006020850151925060408501519150606085015190506000839050600083905060008360001c905061023f8b828c8587610287565b61024857600080fd5b60019650505050505050949350505050565b60006001600083815260200190815260200160002060020160009054906101000a900460ff169050919050565b60008086868686604051602001808573ffffffffffffffffffffffffffffffffffffffff1673ffffffffffffffffffffffffffffffffffffffff1660601b81526014018473ffffffffffffffffffffffffffffffffffffffff1673ffffffffffffffffffffffffffffffffffffffff1660601b815260140183815260200182815260200194505050505060405160208183030381529060405280519060200120905082811461033557600080fd5b600015156001600085815260200190815260200160002060020160009054906101000a900460ff1615151461036957600080fd5b60405180606001604052808481526020018681526020016001151581525060016000858152602001908152602001600020600082015181600001556020820151816001015560408201518160020160006101000a81548160ff0219169083151502179055509050506000809054906101000a900473ffffffffffffffffffffffffffffffffffffffff1673ffffffffffffffffffffffffffffffffffffffff166323b872dd8888886040518463ffffffff1660e01b8152600401808473ffffffffffffffffffffffffffffffffffffffff1673ffffffffffffffffffffffffffffffffffffffff1681526020018373ffffffffffffffffffffffffffffffffffffffff1673ffffffffffffffffffffffffffffffffffffffff1681526020018281526020019350505050602060405180830381600087803b1580156104ad57600080fd5b505af11580156104c1573d6000803e3d6000fd5b505050506040513d60208110156104d757600080fd5b81019080805190602001909291905050505060019150509594505050505056fea265627a7a723158201094359bdf82f32b6cdac4fe2966f829a9d318706ec409382d0612369d5dc97964736f6c63430005100032",
  "source": "pragma solidity ^0.5.0;\n\n\n\n/**------------------------------------\n\nA simple purchase order management smart contract.  This allows 0xBTC users to transfer tokens to another recipient, but do it in such a way that an order number and deterministic order hash are permanently saved on the blockchain for a simple 'proof of purchase' receipt of the transaction.\n\n\n------------------------------------*/\n\n\n\ncontract ERC20Interface {\n    function totalSupply() public view returns (uint);\n    function balanceOf(address tokenOwner) public view returns (uint balance);\n    function allowance(address tokenOwner, address spender) public view returns (uint remaining);\n    function transfer(address to, uint tokens) public returns (bool success);\n    function approve(address spender, uint tokens) public returns (bool success);\n    function transferFrom(address from, address to, uint tokens) public returns (bool success);\n\n    event Transfer(address indexed from, address indexed to, uint tokens);\n    event Approval(address indexed tokenOwner, address indexed spender, uint tokens);\n}\n\n\n\ncontract ApproveAndCallFallBack {\n    function receiveApproval(address from, uint256 tokens, address token, bytes memory data) public;\n}\n\n\ncontract PurchaseOrderManager{\n\n   address masterTokenAddress;\n\n\n  mapping (bytes32 => PurchaseOrder) orders;\n\n   struct PurchaseOrder {\n      bytes32 orderHash;\n      uint amountRaw;\n      bool orderFulfilled;\n   }\n\n    constructor( ) public  {\n        masterTokenAddress = 0xB6eD7644C69416d67B522e20bC294A9a9B405B31;\n    }\n\n    /**\n    * Do not allow ETH to enter\n    */\n     function() external payable\n     {\n         revert();\n     }\n\n\n     function getPurchaseOrderStatus(bytes32 orderHash) public view returns (bool success){\n        return orders[orderHash].orderFulfilled;\n     }\n\n\n     function _purchaseOrder(address from, address to, uint tokens, uint orderNonce, bytes32 orderHash ) internal returns (bool success) {\n\n\n          bytes32 predictedOrderHash = keccak256(abi.encodePacked( from, to, tokens, orderNonce ));\n          require(predictedOrderHash == orderHash);\n\n          require(orders[orderHash].orderFulfilled == false);\n\n          //save the order in history\n          orders[orderHash] = PurchaseOrder(orderHash, tokens, true);\n\n          //send the tokens\n          ERC20Interface(masterTokenAddress).transferFrom(from,to,tokens);\n\n\n          return true;\n      }\n\n       /*\n         Receive approval from ApproveAndCall() to claim a nametag token.\n\n       */\n       function receiveApproval(address from, uint256 tokens, address token, bytes memory data) public returns (bool success) {\n\n        require(token == masterTokenAddress);\n\n         bytes32 borderHash;\n         uint256 borderNonce;\n         bytes32 brecipientAddress;\n\n\n         // Divide the data into variables\n            assembly {\n              borderHash := mload(add(data, 32))\n              borderNonce := mload(add(data, 64))\n              brecipientAddress := mload(add(data, 96))\n            }\n\n\n          bytes32 orderHash = bytes32(borderHash);\n          uint256 orderNonce = uint256(borderNonce);\n          address recipientAddress = address(uint160(uint256(brecipientAddress)));\n\n\n          require(_purchaseOrder( from, recipientAddress, tokens, orderNonce, orderHash     ));\n\n          return true;\n\n       }\n\n\n\n}\n",
  "sourcePath": "/home/andy/dev/lava-token/contracts/purchaseOrderManager.sol",
  "compiler": {
    "name": "solc",
    "version": "0.5.16+commit.9c3226ce.Emscripten.clang"
  },
  "schemaVersion": "3.3.3",
  "updatedAt": "2021-01-23T18:06:47.312Z",
  "devdoc": {
    "methods": {}
  },
  "userdoc": {
    "methods": {}
  }
}