{
  "contractName": "StakingDelegate",
  "abi": [
    {
      "inputs": [
        {
          "internalType": "address",
          "name": "mintableToken",
          "type": "address"
        }
      ],
      "payable": false,
      "stateMutability": "nonpayable",
      "type": "constructor"
    },
    {
      "anonymous": false,
      "inputs": [
        {
          "indexed": false,
          "internalType": "address",
          "name": "token",
          "type": "address"
        },
        {
          "indexed": false,
          "internalType": "address",
          "name": "user",
          "type": "address"
        },
        {
          "indexed": false,
          "internalType": "uint256",
          "name": "amount",
          "type": "uint256"
        },
        {
          "indexed": false,
          "internalType": "uint256",
          "name": "balance",
          "type": "uint256"
        }
      ],
      "name": "Deposit",
      "type": "event"
    },
    {
      "anonymous": false,
      "inputs": [
        {
          "indexed": false,
          "internalType": "address",
          "name": "token",
          "type": "address"
        },
        {
          "indexed": false,
          "internalType": "address",
          "name": "user",
          "type": "address"
        },
        {
          "indexed": false,
          "internalType": "uint256",
          "name": "amount",
          "type": "uint256"
        },
        {
          "indexed": false,
          "internalType": "uint256",
          "name": "balance",
          "type": "uint256"
        }
      ],
      "name": "Withdraw",
      "type": "event"
    },
    {
      "payable": true,
      "stateMutability": "payable",
      "type": "fallback"
    },
    {
      "constant": true,
      "inputs": [
        {
          "internalType": "uint256",
          "name": "",
          "type": "uint256"
        }
      ],
      "name": "amountStaked",
      "outputs": [
        {
          "internalType": "uint256",
          "name": "",
          "type": "uint256"
        }
      ],
      "payable": false,
      "stateMutability": "view",
      "type": "function"
    },
    {
      "constant": true,
      "inputs": [
        {
          "internalType": "address",
          "name": "",
          "type": "address"
        }
      ],
      "name": "balances",
      "outputs": [
        {
          "internalType": "uint256",
          "name": "",
          "type": "uint256"
        }
      ],
      "payable": false,
      "stateMutability": "view",
      "type": "function"
    },
    {
      "constant": true,
      "inputs": [],
      "name": "minedToken",
      "outputs": [
        {
          "internalType": "address",
          "name": "",
          "type": "address"
        }
      ],
      "payable": false,
      "stateMutability": "view",
      "type": "function"
    },
    {
      "constant": true,
      "inputs": [],
      "name": "numberOfStakers",
      "outputs": [
        {
          "internalType": "uint256",
          "name": "",
          "type": "uint256"
        }
      ],
      "payable": false,
      "stateMutability": "view",
      "type": "function"
    },
    {
      "constant": true,
      "inputs": [
        {
          "internalType": "uint256",
          "name": "",
          "type": "uint256"
        }
      ],
      "name": "stakerAuthorities",
      "outputs": [
        {
          "internalType": "address",
          "name": "",
          "type": "address"
        }
      ],
      "payable": false,
      "stateMutability": "view",
      "type": "function"
    },
    {
      "constant": true,
      "inputs": [
        {
          "internalType": "uint256",
          "name": "",
          "type": "uint256"
        }
      ],
      "name": "stakers",
      "outputs": [
        {
          "internalType": "address",
          "name": "",
          "type": "address"
        }
      ],
      "payable": false,
      "stateMutability": "view",
      "type": "function"
    },
    {
      "constant": true,
      "inputs": [
        {
          "internalType": "uint256",
          "name": "",
          "type": "uint256"
        }
      ],
      "name": "stakingLockBlock",
      "outputs": [
        {
          "internalType": "uint256",
          "name": "",
          "type": "uint256"
        }
      ],
      "payable": false,
      "stateMutability": "view",
      "type": "function"
    },
    {
      "constant": false,
      "inputs": [
        {
          "internalType": "uint256",
          "name": "tokens",
          "type": "uint256"
        },
        {
          "internalType": "uint256",
          "name": "stakerIndex",
          "type": "uint256"
        },
        {
          "internalType": "address",
          "name": "authority",
          "type": "address"
        }
      ],
      "name": "startStaking",
      "outputs": [
        {
          "internalType": "bool",
          "name": "",
          "type": "bool"
        }
      ],
      "payable": false,
      "stateMutability": "nonpayable",
      "type": "function"
    },
    {
      "constant": false,
      "inputs": [
        {
          "internalType": "uint256",
          "name": "stakerIndex",
          "type": "uint256"
        }
      ],
      "name": "stopStaking",
      "outputs": [
        {
          "internalType": "bool",
          "name": "",
          "type": "bool"
        }
      ],
      "payable": false,
      "stateMutability": "nonpayable",
      "type": "function"
    },
    {
      "constant": true,
      "inputs": [],
      "name": "getRelayAuthority",
      "outputs": [
        {
          "internalType": "address",
          "name": "king",
          "type": "address"
        }
      ],
      "payable": false,
      "stateMutability": "view",
      "type": "function"
    },
    {
      "constant": true,
      "inputs": [
        {
          "internalType": "uint256",
          "name": "stakerIndex",
          "type": "uint256"
        }
      ],
      "name": "isSlotOpen",
      "outputs": [
        {
          "internalType": "bool",
          "name": "open",
          "type": "bool"
        }
      ],
      "payable": false,
      "stateMutability": "view",
      "type": "function"
    },
    {
      "constant": true,
      "inputs": [],
      "name": "getEpochNumber",
      "outputs": [
        {
          "internalType": "uint256",
          "name": "",
          "type": "uint256"
        }
      ],
      "payable": false,
      "stateMutability": "view",
      "type": "function"
    },
    {
      "constant": false,
      "inputs": [
        {
          "internalType": "address",
          "name": "from",
          "type": "address"
        },
        {
          "internalType": "uint256",
          "name": "tokens",
          "type": "uint256"
        }
      ],
      "name": "depositTokens",
      "outputs": [
        {
          "internalType": "bool",
          "name": "success",
          "type": "bool"
        }
      ],
      "payable": false,
      "stateMutability": "nonpayable",
      "type": "function"
    },
    {
      "constant": false,
      "inputs": [
        {
          "internalType": "uint256",
          "name": "tokens",
          "type": "uint256"
        }
      ],
      "name": "withdrawTokens",
      "outputs": [
        {
          "internalType": "bool",
          "name": "success",
          "type": "bool"
        }
      ],
      "payable": false,
      "stateMutability": "nonpayable",
      "type": "function"
    },
    {
      "constant": false,
      "inputs": [
        {
          "internalType": "address",
          "name": "from",
          "type": "address"
        },
        {
          "internalType": "uint256",
          "name": "tokens",
          "type": "uint256"
        },
        {
          "internalType": "address",
          "name": "token",
          "type": "address"
        },
        {
          "internalType": "bytes",
          "name": "data",
          "type": "bytes"
        }
      ],
      "name": "receiveApproval",
      "outputs": [
        {
          "internalType": "bool",
          "name": "success",
          "type": "bool"
        }
      ],
      "payable": false,
      "stateMutability": "nonpayable",
      "type": "function"
    }
  ],
  "bytecode": "0x6080604052600f60045534801561001557600080fd5b506040516116533803806116538339818101604052602081101561003857600080fd5b810190808051906020019092919050505080600660006101000a81548173ffffffffffffffffffffffffffffffffffffffff021916908373ffffffffffffffffffffffffffffffffffffffff160217905550506115b98061009a6000396000f3fe6080604052600436106100e85760003560e01c80638f4ffcb11161008a578063bbbfb63111610059578063bbbfb6311461058d578063de41faf6146105dc578063edfffca01461062b578063fd5e6dd114610682576100e8565b80638f4ffcb11461036a5780639a7b3be7146104945780639f5723a2146104bf578063b5ea4d7514610512576100e8565b80635eabf577116100c65780635eabf577146101f857806366168bd7146102235780637b0e5910146102965780638c06368614610313576100e8565b80631c760bdb146100ed57806327e235e314610140578063315a095d146101a5575b600080fd5b3480156100f957600080fd5b506101266004803603602081101561011057600080fd5b81019080803590602001909291905050506106fd565b604051808215151515815260200191505060405180910390f35b34801561014c57600080fd5b5061018f6004803603602081101561016357600080fd5b81019080803573ffffffffffffffffffffffffffffffffffffffff16906020019092919050505061092b565b6040518082815260200191505060405180910390f35b3480156101b157600080fd5b506101de600480360360208110156101c857600080fd5b8101908080359060200190929190505050610943565b604051808215151515815260200191505060405180910390f35b34801561020457600080fd5b5061020d610bd8565b6040518082815260200191505060405180910390f35b34801561022f57600080fd5b5061027c6004803603604081101561024657600080fd5b81019080803573ffffffffffffffffffffffffffffffffffffffff16906020019092919080359060200190929190505050610bde565b604051808215151515815260200191505060405180910390f35b3480156102a257600080fd5b506102f9600480360360608110156102b957600080fd5b810190808035906020019092919080359060200190929190803573ffffffffffffffffffffffffffffffffffffffff169060200190929190505050610ea8565b604051808215151515815260200191505060405180910390f35b34801561031f57600080fd5b50610328611287565b604051808273ffffffffffffffffffffffffffffffffffffffff1673ffffffffffffffffffffffffffffffffffffffff16815260200191505060405180910390f35b34801561037657600080fd5b5061047a6004803603608081101561038d57600080fd5b81019080803573ffffffffffffffffffffffffffffffffffffffff16906020019092919080359060200190929190803573ffffffffffffffffffffffffffffffffffffffff169060200190929190803590602001906401000000008111156103f457600080fd5b82018360208201111561040657600080fd5b8035906020019184600183028401116401000000008311171561042857600080fd5b91908080601f016020809104026020016040519081016040528093929190818152602001838380828437600081840152601f19601f8201169050808301925050505050505091929192905050506112dd565b604051808215151515815260200191505060405180910390f35b3480156104a057600080fd5b506104a961134d565b6040518082815260200191505060405180910390f35b3480156104cb57600080fd5b506104f8600480360360208110156104e257600080fd5b81019080803590602001909291905050506113f7565b604051808215151515815260200191505060405180910390f35b34801561051e57600080fd5b5061054b6004803603602081101561053557600080fd5b8101908080359060200190929190505050611421565b604051808273ffffffffffffffffffffffffffffffffffffffff1673ffffffffffffffffffffffffffffffffffffffff16815260200191505060405180910390f35b34801561059957600080fd5b506105c6600480360360208110156105b057600080fd5b810190808035906020019092919050505061145d565b6040518082815260200191505060405180910390f35b3480156105e857600080fd5b50610615600480360360208110156105ff57600080fd5b810190808035906020019092919050505061147e565b6040518082815260200191505060405180910390f35b34801561063757600080fd5b5061064061149f565b604051808273ffffffffffffffffffffffffffffffffffffffff1673ffffffffffffffffffffffffffffffffffffffff16815260200191505060405180910390f35b34801561068e57600080fd5b506106bb600480360360208110156106a557600080fd5b81019080803590602001909291905050506114c5565b604051808273ffffffffffffffffffffffffffffffffffffffff1673ffffffffffffffffffffffffffffffffffffffff16815260200191505060405180910390f35b60003373ffffffffffffffffffffffffffffffffffffffff166000838154811061072357fe5b9060005260206000200160009054906101000a900473ffffffffffffffffffffffffffffffffffffffff1673ffffffffffffffffffffffffffffffffffffffff161461076e57600080fd5b600454821061077c57600080fd5b6003828154811061078957fe5b906000526020600020015461079c61134d565b116107a657600080fd5b6000600283815481106107b557fe5b906000526020600020015490506000600284815481106107d157fe5b906000526020600020018190555060008084815481106107ed57fe5b9060005260206000200160006101000a81548173ffffffffffffffffffffffffffffffffffffffff021916908373ffffffffffffffffffffffffffffffffffffffff16021790555060006001848154811061084457fe5b9060005260206000200160006101000a81548173ffffffffffffffffffffffffffffffffffffffff021916908373ffffffffffffffffffffffffffffffffffffffff1602179055506108de81600560003373ffffffffffffffffffffffffffffffffffffffff1673ffffffffffffffffffffffffffffffffffffffff1681526020019081526020016000205461150190919063ffffffff16565b600560003373ffffffffffffffffffffffffffffffffffffffff1673ffffffffffffffffffffffffffffffffffffffff168152602001908152602001600020819055506001915050919050565b60056020528060005260406000206000915090505481565b600061099782600560003373ffffffffffffffffffffffffffffffffffffffff1673ffffffffffffffffffffffffffffffffffffffff1681526020019081526020016000205461151d90919063ffffffff16565b600560003373ffffffffffffffffffffffffffffffffffffffff1673ffffffffffffffffffffffffffffffffffffffff16815260200190815260200160002081905550600660009054906101000a900473ffffffffffffffffffffffffffffffffffffffff1673ffffffffffffffffffffffffffffffffffffffff1663a9059cbb33846040518363ffffffff1660e01b8152600401808373ffffffffffffffffffffffffffffffffffffffff1673ffffffffffffffffffffffffffffffffffffffff16815260200182815260200192505050602060405180830381600087803b158015610a8357600080fd5b505af1158015610a97573d6000803e3d6000fd5b505050506040513d6020811015610aad57600080fd5b8101908080519060200190929190505050610ac757600080fd5b7ff341246adaac6f497bc2a656f546ab9e182111d630394f0c57c710a59a2cb567600660009054906101000a900473ffffffffffffffffffffffffffffffffffffffff163384600560003373ffffffffffffffffffffffffffffffffffffffff1673ffffffffffffffffffffffffffffffffffffffff16815260200190815260200160002054604051808573ffffffffffffffffffffffffffffffffffffffff1673ffffffffffffffffffffffffffffffffffffffff1681526020018473ffffffffffffffffffffffffffffffffffffffff1673ffffffffffffffffffffffffffffffffffffffff16815260200183815260200182815260200194505050505060405180910390a160019050919050565b60045481565b6000600660009054906101000a900473ffffffffffffffffffffffffffffffffffffffff1673ffffffffffffffffffffffffffffffffffffffff166323b872dd8430856040518463ffffffff1660e01b8152600401808473ffffffffffffffffffffffffffffffffffffffff1673ffffffffffffffffffffffffffffffffffffffff1681526020018373ffffffffffffffffffffffffffffffffffffffff1673ffffffffffffffffffffffffffffffffffffffff1681526020018281526020019350505050602060405180830381600087803b158015610cbd57600080fd5b505af1158015610cd1573d6000803e3d6000fd5b505050506040513d6020811015610ce757600080fd5b8101908080519060200190929190505050610d0157600080fd5b610d5382600560008673ffffffffffffffffffffffffffffffffffffffff1673ffffffffffffffffffffffffffffffffffffffff1681526020019081526020016000205461150190919063ffffffff16565b600560008573ffffffffffffffffffffffffffffffffffffffff1673ffffffffffffffffffffffffffffffffffffffff168152602001908152602001600020819055507fdcbc1c05240f31ff3ad067ef1ee35ce4997762752e3a095284754544f4c709d7600660009054906101000a900473ffffffffffffffffffffffffffffffffffffffff168484600560008873ffffffffffffffffffffffffffffffffffffffff1673ffffffffffffffffffffffffffffffffffffffff16815260200190815260200160002054604051808573ffffffffffffffffffffffffffffffffffffffff1673ffffffffffffffffffffffffffffffffffffffff1681526020018473ffffffffffffffffffffffffffffffffffffffff1673ffffffffffffffffffffffffffffffffffffffff16815260200183815260200182815260200194505050505060405180910390a16001905092915050565b600083610ee96014610edb601560028881548110610ec257fe5b906000526020600020015461153490919063ffffffff16565b61156b90919063ffffffff16565b10610ef357600080fd5b6004548310610f0157600080fd5b3373ffffffffffffffffffffffffffffffffffffffff1660008481548110610f2557fe5b9060005260206000200160009054906101000a900473ffffffffffffffffffffffffffffffffffffffff1673ffffffffffffffffffffffffffffffffffffffff161415610f7157600080fd5b60038381548110610f7e57fe5b9060005260206000200154610f9161134d565b11610f9b57600080fd5b6064610fa561134d565b0160038481548110610fb357fe5b90600052602060002001819055506000808481548110610fcf57fe5b9060005260206000200160009054906101000a900473ffffffffffffffffffffffffffffffffffffffff16905060006002858154811061100b57fe5b9060005260206000200154905060006001868154811061102757fe5b9060005260206000200160009054906101000a900473ffffffffffffffffffffffffffffffffffffffff1690506110a687600560003373ffffffffffffffffffffffffffffffffffffffff1673ffffffffffffffffffffffffffffffffffffffff1681526020019081526020016000205461151d90919063ffffffff16565b600560003373ffffffffffffffffffffffffffffffffffffffff1673ffffffffffffffffffffffffffffffffffffffff1681526020019081526020016000208190555061111387600288815481106110fa57fe5b906000526020600020015461150190919063ffffffff16565b6002878154811061112057fe5b9060005260206000200181905550336000878154811061113c57fe5b9060005260206000200160006101000a81548173ffffffffffffffffffffffffffffffffffffffff021916908373ffffffffffffffffffffffffffffffffffffffff160217905550846001878154811061119257fe5b9060005260206000200160006101000a81548173ffffffffffffffffffffffffffffffffffffffff021916908373ffffffffffffffffffffffffffffffffffffffff16021790555060008211156112795761123582600560008673ffffffffffffffffffffffffffffffffffffffff1673ffffffffffffffffffffffffffffffffffffffff1681526020019081526020016000205461150190919063ffffffff16565b600560008573ffffffffffffffffffffffffffffffffffffffff1673ffffffffffffffffffffffffffffffffffffffff168152602001908152602001600020819055505b600193505050509392505050565b60008060045461129561134d565b8161129c57fe5b069050600181815481106112ac57fe5b9060005260206000200160009054906101000a900473ffffffffffffffffffffffffffffffffffffffff1691505090565b6000600660009054906101000a900473ffffffffffffffffffffffffffffffffffffffff1673ffffffffffffffffffffffffffffffffffffffff168373ffffffffffffffffffffffffffffffffffffffff161461133957600080fd5b6113438585610bde565b9050949350505050565b6000600660009054906101000a900473ffffffffffffffffffffffffffffffffffffffff1673ffffffffffffffffffffffffffffffffffffffff1663829965cc6040518163ffffffff1660e01b815260040160206040518083038186803b1580156113b757600080fd5b505afa1580156113cb573d6000803e3d6000fd5b505050506040513d60208110156113e157600080fd5b8101908080519060200190929190505050905090565b60006003828154811061140657fe5b906000526020600020015461141961134d565b119050919050565b6001818154811061142e57fe5b906000526020600020016000915054906101000a900473ffffffffffffffffffffffffffffffffffffffff1681565b6003818154811061146a57fe5b906000526020600020016000915090505481565b6002818154811061148b57fe5b906000526020600020016000915090505481565b600660009054906101000a900473ffffffffffffffffffffffffffffffffffffffff1681565b600081815481106114d257fe5b906000526020600020016000915054906101000a900473ffffffffffffffffffffffffffffffffffffffff1681565b60008082840190508381101561151357fe5b8091505092915050565b60008282111561152957fe5b818303905092915050565b6000808314156115475760009050611565565b600082840290508284828161155857fe5b041461156057fe5b809150505b92915050565b60008082848161157757fe5b049050809150509291505056fea265627a7a72315820843702d6e3b0f96b6805ba7f419fc2243b0689d4022b3123ad635594bfa9c25264736f6c63430005100032",
  "source": "pragma solidity ^0.5.0;\n\n\n\n/**\n * @title SafeMath\n * @dev Math operations with safety checks that throw on error\n */\nlibrary SafeMath {\n\n  /**\n  * @dev Multiplies two numbers, throws on overflow.\n  */\n  function mul(uint256 a, uint256 b) internal pure returns (uint256) {\n    if (a == 0) {\n      return 0;\n    }\n    uint256 c = a * b;\n    assert(c / a == b);\n    return c;\n  }\n\n  /**\n  * @dev Integer division of two numbers, truncating the quotient.\n  */\n  function div(uint256 a, uint256 b) internal pure returns (uint256) {\n    // assert(b > 0); // Solidity automatically throws when dividing by 0\n    uint256 c = a / b;\n    // assert(a == b * c + a % b); // There is no case in which this doesn't hold\n    return c;\n  }\n\n  /**\n  * @dev Substracts two numbers, throws on overflow (i.e. if subtrahend is greater than minuend).\n  */\n  function sub(uint256 a, uint256 b) internal pure returns (uint256) {\n    assert(b <= a);\n    return a - b;\n  }\n\n  /**\n  * @dev Adds two numbers, throws on overflow.\n  */\n  function add(uint256 a, uint256 b) internal pure returns (uint256) {\n    uint256 c = a + b;\n    assert(c >= a);\n    return c;\n  }\n}\n\n\n/*\n\nThis is a King Of The Hill Aurhority contract which requires Proof of Stake to set the king\n\n\n*/\n\ncontract ERC20Interface {\n    function totalSupply() public view returns (uint);\n    function balanceOf(address tokenOwner) public view returns (uint balance);\n    function allowance(address tokenOwner, address spender) public view returns (uint remaining);\n    function transfer(address to, uint tokens) public returns (bool success);\n    function approve(address spender, uint tokens) public returns (bool success);\n    function transferFrom(address from, address to, uint tokens) public returns (bool success);\n\n    event Transfer(address indexed from, address indexed to, uint tokens);\n    event Approval(address indexed tokenOwner, address indexed spender, uint tokens);\n}\ncontract ERC918Interface {\n\n  function epochCount() public view returns (uint256);\n\n  function totalSupply() public view returns (uint);\n  function getMiningDifficulty() public view returns (uint);\n  function getMiningTarget() public view returns (uint);\n  function getMiningReward() public view returns (uint);\n  function balanceOf(address tokenOwner) public view returns (uint balance);\n\n  function mint(uint256 nonce, bytes32 challenge_digest) public returns (bool success);\n\n  event Mint(address indexed from, uint reward_amount, uint epochCount, bytes32 newChallengeNumber);\n\n}\n\n\ncontract RelayAuthorityInterface {\n    function getRelayAuthority()  view public returns (address);\n}\n\n\ncontract StakingDelegate is  RelayAuthorityInterface {\n\n\n    using SafeMath for uint;\n\n\n\n   //There are slots, can overwrite one by staking enough tokens\n    address[] public stakers;\n    address[] public stakerAuthorities;\n    uint[] public amountStaked;\n\n    uint[] public stakingLockBlock; //The block at which the staker is allowed to withdraw their stake\n\n    uint public numberOfStakers = 15;  //A constant\n\n    mapping(address => uint) public balances;\n\n\n\n   address public minedToken;\n\n\n\n    event Deposit(address token, address user, uint amount, uint balance);\n    event Withdraw(address token, address user, uint amount, uint balance);\n\n\n   // 0xBTC is 0xb6ed7644c69416d67b522e20bc294a9a9b405b31;\n  constructor(address mintableToken) public  {\n    minedToken = mintableToken;\n  }\n\n\n  //do not allow ether to enter\n  function() external payable {\n      revert();\n  }\n\n\n  function startStaking(uint tokens , uint stakerIndex, address authority) public returns (bool)\n  {\n    require( amountStaked[stakerIndex].mul(21).div(20) < tokens );\n    require( stakerIndex < numberOfStakers );\n    require( stakers[stakerIndex] != msg.sender );\n    require( getEpochNumber() > stakingLockBlock[stakerIndex]);\n\n    stakingLockBlock[stakerIndex] = getEpochNumber() + 100;\n\n    address originalStaker = stakers[stakerIndex];\n    uint originalAmountStaked = amountStaked[stakerIndex];\n    address originalAuthority = stakerAuthorities[stakerIndex];\n\n\n    balances[msg.sender] = balances[msg.sender].sub(tokens);\n    amountStaked[stakerIndex] = amountStaked[stakerIndex].add(tokens);\n    stakers[stakerIndex] = msg.sender;\n    stakerAuthorities[stakerIndex] = authority;\n\n    if(originalAmountStaked>0)\n    {\n      balances[originalStaker] = balances[originalStaker].add(originalAmountStaked);\n    }\n\n    return true;\n  }\n\n  function stopStaking(uint stakerIndex) public returns (bool)\n  {\n    //require( amountStaked[stakerIndex] >= tokens );\n    require( stakers[stakerIndex] == msg.sender );\n    require( stakerIndex < numberOfStakers );\n    require( getEpochNumber() > stakingLockBlock[stakerIndex]);\n\n    uint originalAmountStaked = amountStaked[stakerIndex];\n\n    amountStaked[stakerIndex] = 0;\n    stakers[stakerIndex] = address(0x0);\n    stakerAuthorities[stakerIndex] = address(0x0);\n    balances[msg.sender] = balances[msg.sender].add(originalAmountStaked);\n\n    return true;\n  }\n\n\n  /*\n  Rotate through the staker authorities\n  */\n  function getRelayAuthority() view public returns (address king)\n  {\n    uint stakerIndex = getEpochNumber() % numberOfStakers;\n\n    return stakerAuthorities[stakerIndex];\n  }\n\n\n  function isSlotOpen(uint stakerIndex) view public returns (bool open)\n  {\n    return ( getEpochNumber() > stakingLockBlock[stakerIndex] );\n  }\n\n  function getEpochNumber() view public returns (uint256  )\n  {\n    return  ERC918Interface(minedToken).epochCount() ;\n  }\n\n\n\nfunction depositTokens(address from,  uint256 tokens ) public returns (bool success)\n  {\n      //we already have approval so lets do a transferFrom - transfer the tokens into this contract\n\n      require(ERC20Interface(minedToken).transferFrom(from, address(this), tokens));\n\n      balances[from] = balances[from].add(tokens);\n\n      emit Deposit(minedToken, from, tokens, balances[from]);\n\n      return true;\n  }\n\n\n  //No approve needed, only from msg.sender\n  function withdrawTokens(  uint256 tokens) public returns (bool success){\n     balances[msg.sender] = balances[msg.sender].sub(tokens);\n\n     require(ERC20Interface(minedToken).transfer(msg.sender, tokens));\n\n\n     emit Withdraw(minedToken, msg.sender, tokens, balances[msg.sender]);\n     return true;\n}\n\n\n  function receiveApproval(address from, uint256 tokens, address token, bytes memory data) public returns (bool success) {\n       require(token == minedToken);\n\n       return depositTokens(from,   tokens );\n\n}\n\n\n\n\n\n\n\n}\n",
  "sourcePath": "/home/andy/dev/lava-token/contracts/StakingDelegate.sol",
  "compiler": {
    "name": "solc",
    "version": "0.5.16+commit.9c3226ce.Emscripten.clang"
  },
  "schemaVersion": "3.3.3",
  "updatedAt": "2021-01-23T18:06:47.304Z",
  "devdoc": {
    "methods": {}
  },
  "userdoc": {
    "methods": {}
  }
}